:020000040800F2
:1000000000280020991A0008291A00082F1A000851
:10001000351A00083B1A0008411A000800000000C9
:10002000000000000000000000000000471A000867
:10003000531A0008000000005F1A00086B1A00083D
:10004000E11A0008E11A0008E11A0008E11A0008A4
:10005000E11A0008E11A0008E11A0008E11A000894
:10006000E11A0008E11A0008E11A0008E11A000884
:10007000E11A0008E11A0008E11A0008E11A000874
:10008000E11A0008E11A0008E11A0008E11A000864
:10009000E11A0008E11A0008E11A0008E11A000854
:1000A000E11A0008E11A0008E11A0008E11A000844
:1000B000791A0008E11A000800000000E11A00089F
:1000C000E11A00080000000000000000E11A00082A
:1000D00000000000E11A0008E11A0008000000001A
:1000E000E11A0008E11A0008E11A00080000000007
:1000F0000000000000000000000000000000000000
:0C01000000000000000000005FF808F1A3
:10010C0010B5054C237833B9044B13B10448AFF345
:10011C0000800123237010BD280000200000000087
:10012C003831000808B5034B1BB103490348AFF342
:10013C00008008BD000000002C00002038310008B1
:10014C0080B582B000AF78600B467B807B88012243
:10015C001946786801F0C1FF00BF0837BD4680BD65
:10016C0080B582B000AF78600B467B807B88002224
:10017C001946786801F0B1FF00BF0837BD4680BD55
:10018C0080B582B000AF78600B467B807B881946C7
:10019C00786801F0BAFF00BF0837BD4680BD00008B
:1001AC0080B500AF08210D48FFF7DAFF10210B488E
:1001BC00FFF7D6FF20210948FFF7D2FF402107485F
:1001CC00FFF7CEFF80210548FFF7CAFF4FF480717F
:1001DC000248FFF7C5FF00BF80BD00BF000801400B
:1001EC0080B500AF01224FF48051324801F075FF09
:1001FC0001224FF480512F4801F06FFF01224FF480
:10020C0080512C4801F069FF01224FF4805129489C
:10021C0001F063FF01220121274801F05EFF01225A
:10022C000221254801F059FF01220421224801F046
:10023C0054FF01220821204801F04FFF0122102118
:10024C001D4801F04AFF012220211B4801F045FF07
:10025C0001224021184801F040FF01224FF40071A7
:10026C00154801F03AFF01224FF48061124801F069
:10027C0034FF01224FF400610F4801F02EFF0122E0
:10028C004FF480510C4801F028FF01224FF400512B
:10029C00094801F022FF01224FF48041064801F089
:1002AC001CFF01224FF40041034801F016FF00BF70
:1002BC0080BD00BF00080140000C014090B583B028
:1002CC0000AF0446084611461A462346FB800346F7
:1002DC00BB800B467B8013463B803B6C092B00F2AA
:1002EC00C58101A252F823F01D0300087303000816
:1002FC00C90300081F04000875040008CB0400089B
:10030C002105000877050008CD0500082306000824
:10031C00FB8800221946786A01F0DFFEBB880022B8
:10032C001946B86A01F0D9FE7B8800221946F86A92
:10033C0001F0D3FE3B8800221946386B01F0CDFE4C
:10034C003B8B00221946786B01F0C7FEBB8B002259
:10035C001946B86B01F0C1FE3B8C01221946F86BB3
:10036C0001F0BBFEADE1FB8801221946786A01F071
:10037C00B4FEBB8800221946B86A01F0AEFE7B8839
:10038C0000221946F86A01F0A8FE3B8801221946A2
:10039C00386B01F0A2FE3B8B01221946786B01F001
:1003AC009CFEBB8B01221946B86B01F096FE3B8C70
:1003BC0001221946F86B01F090FE82E1FB880022C5
:1003CC001946786A01F089FEBB8800221946B86A82
:1003DC0001F083FE7B8801221946F86A01F07DFE4C
:1003EC003B8800221946386B01F077FE3B8B0022CC
:1003FC001946786B01F071FEBB8B01221946B86B64
:10040C0001F06BFE3B8C00221946F86B01F065FE87
:10041C0057E1FB8800221946786A01F05EFEBB8822
:10042C0000221946B86A01F058FE7B880022194652
:10043C00F86A01F052FE3B8800221946386B01F035
:10044C004CFE3B8B01221946786B01F046FEBB8BB0
:10045C0001221946B86B01F040FE3B8C0022194674
:10046C00F86B01F03AFE2CE1FB8801221946786A00
:10047C0001F033FEBB8800221946B86A01F02DFE4C
:10048C007B8800221946F86A01F027FE3B8801227E
:10049C001946386B01F021FE3B8B01221946786B13
:1004AC0001F01BFEBB8B00221946B86B01F015FE48
:1004BC003B8C00221946F86B01F00FFE01E1FB8822
:1004CC0000221946786A01F008FEBB880122194601
:1004DC00B86A01F002FE7B8800221946F86A01F026
:1004EC00FCFD3B8800221946386B01F0F6FD3B8B76
:1004FC0001221946786B01F0F0FDBB8B00221946E6
:10050C00B86B01F0EAFD3B8C00221946F86B01F048
:10051C00E4FDD6E0FB8800221946786A01F0DDFD87
:10052C00BB8801221946B86A01F0D7FD7B880022EE
:10053C001946F86A01F0D1FD3B8800221946386B48
:10054C0001F0CBFD3B8B00221946786B01F0C5FD09
:10055C00BB8B00221946B86B01F0BFFD3B8C00220F
:10056C001946F86B01F0B9FDABE0FB880022194687
:10057C00786A01F0B2FDBB8800221946B86A01F016
:10058C00ACFD7B8800221946F86A01F0A6FD3B8879
:10059C0001221946386B01F0A0FD3B8B0122194654
:1005AC00786B01F09AFDBB8B01221946B86B01F0F8
:1005BC0094FD3B8C01221946F86B01F08EFD80E016
:1005CC00FB8800221946786A01F087FDBB8800225F
:1005DC001946B86A01F081FD7B8800221946F86A39
:1005EC0001F07BFD3B8800221946386B01F075FD4C
:1005FC003B8B00221946786B01F06FFDBB8B002200
:10060C001946B86B01F069FD3B8C00221946F86B5A
:10061C0001F063FD55E0FB8800221946786A01F071
:10062C005CFDBB8800221946B86A01F056FD7B8838
:10063C0000221946F86A01F050FD3B880022194649
:10064C00386B01F04AFD3B8B01221946786B01F0A7
:10065C0044FDBB8B00221946B86B01F03EFD3B8C70
:10066C0000221946F86B01F038FD2AE0FB880122C4
:10067C001946786A01F031FDBB8801221946B86A27
:10068C0001F02BFD7B8801221946F86A01F025FD4B
:10069C003B8801221946386B01F01FFD3B8B012270
:1006AC001946786B01F019FDBB8B01221946B86B0A
:1006BC0001F013FD3B8C01221946F86B01F00DFD86
:1006CC0000BF00BF0C37BD4690BD00BF80B58CB0DD
:1006DC000CAF354B1B68012B62D100224FF48051BB
:1006EC00324801F0FAFC00224FF480512F4801F0FF
:1006FC00F4FC00224FF480512C4801F0EEFC002257
:10070C004FF48051294801F0E8FC294B1B685A1E14
:10071C0027490A600A93274B0993264B0893254BCC
:10072C000793244B0693234B0593224B0493214BA5
:10073C000393402302932023019310230093082357
:10074C00042202210120FFF7B9FD1B4B1B685A1E26
:10075C0019490A600A93174B0993164B0893154BCA
:10076C000793144B0693134B0593124B0493114BA5
:10077C0003934FF4004302934FF4804301934FF4DF
:10078C00005300934FF480534FF400624FF4806198
:10079C004FF40070FFF792FD4FF47A7001F02AF8D5
:1007AC0000BFBD4680BD00BF900000200008014086
:1007BC0068000020000C01406C00002080B58CB05B
:1007CC000CAF784B1B68032B00F2F48101A252F89A
:1007DC0023F000BFF1070008BF080008E10900087A
:1007EC00D10A00086F4B01221A606F4B1B686F4ACD
:1007FC001360322000F0C6FF322000F0FBFF3220E5
:10080C0001F014F8002000F0ABFD0346002B00F0C3
:10081C00D381644B4FF0FF321A60654B0C221A6087
:10082C00624B4FF0FF321A605F4B1B68614A1360DA
:10083C00614B1B68614A1360614B1B68614A136012
:10084C00FFF7AEFCFFF7CCFC08215F48FFF778FC04
:10085C0040215D48FFF774FC00224FF480515A4848
:10086C0001F03BFC01230A93584B0993574B089317
:10087C00564B0793554B0693544B0593534B04938C
:10088C00524B039340230293202301931023009394
:10089C000823042202210120FFF710FD00F0E2FFE3
:1008AC0000F0F0FF00F0FEFF4FF4FA7000F0BEFF16
:1008BC0082E1474B1B68012B1BD13A4B02221A6079
:1008CC0008214148FFF73CFC10213F48FFF748FC4A
:1008DC0020213D48FFF744FC334B1B68334A13601F
:1008EC00314B1B684FF47A7202FB03F3184600F08D
:1008FC0049FF002000F034FD0346002B4ED0294B5D
:10090C004FF0FF321A602A4B0C221A60274B4FF023
:10091C00FF321A60244B1B68264A1360264B1B6857
:10092C00264A1360264B1B68264A1360FFF738FCD7
:10093C00FFF756FC08212448FFF702FC402122480F
:10094C00FFF7FEFB00224FF480511F4801F0C5FB5E
:10095C0001230A931D4B09931C4B08931B4B0793C4
:10096C001A4B0693194B0593184B0493174B03938F
:10097C004023029320230193102300930823042285
:10098C0002210120FFF79AFC00F06CFF00F07AFFC7
:10099C0000F088FF4FF4FA7000F048FFFFF796FE66
:1009AC000BE100BF44000020500000206800002034
:1009BC004C0000205C000020580000206400002047
:1009CC00540000206000002000080140000C014091
:1009DC00880000207A4B1B68012B1BD1794B03221A
:1009EC001A6020217848FFF7ABFB08217648FFF707
:1009FC00B7FB10217448FFF7B3FB744B1B68744AA8
:100A0C001360724B1B684FF47A7202FB03F31846A7
:100A1C0000F0B8FE002000F0A3FC0346002B4ED0E3
:100A2C00684B4FF0FF321A606A4B0C221A60684B0D
:100A3C004FF0FF321A60684B1B68684A1360684BB2
:100A4C001B68684A1360614B1B68674A1360FFF7A9
:100A5C00A7FBFFF7C5FB08215B48FFF771FB4021A3
:100A6C005948FFF76DFB00224FF48051564801F0B6
:100A7C0034FB01230A935D4B09935C4B08935B4B4E
:100A8C0007935A4B0693594B0593584B0493574B6A
:100A9C0003934023029320230193102300930823F4
:100AAC00042202210120FFF709FC00F0DBFE00F01C
:100ABC00E9FE00F0F7FE4FF4FA7000F0B7FEFFF716
:100ACC0005FE7AE03E4B1B68012B1BD13D4B0122EE
:100ADC001A6010213C48FFF733FB08213A48FFF716
:100AEC003FFB20213848FFF73BFB3D4B1B68384A46
:100AFC0013603B4B1B684FF47A7202FB03F31846EE
:100B0C0000F040FE002000F02BFC0346002B4ED0E2
:100B1C002C4B4FF0FF321A602E4B0C221A602C4BD0
:100B2C004FF0FF321A602C4B1B682C4A13602C4B75
:100B3C001B682C4A1360254B1B682B4A1360FFF76C
:100B4C002FFBFFF74DFB08211F48FFF7F9FA402157
:100B5C001D48FFF7F5FA00224FF480511A4801F0B6
:100B6C00BCFA01230A93214B0993204B08931F4B8A
:100B7C0007931E4B06931D4B05931C4B04931B4B69
:100B8C000393402302932023019310230093082303
:100B9C00042202210120FFF791FB00F063FE00F01C
:100BAC0071FE00F07FFE4FF4FA7000F03FFEFFF78D
:100BBC008DFD02E000BF00E000BF00BFBD4680BD60
:100BCC008800002044000020000801405400002050
:100BDC00680000204C000020500000205C00002029
:100BEC00580000206400002060000020000C014030
:100BFC0080B58CB00CAFAF4B1B68032B00F2EB81B4
:100C0C0001A252F823F000BF250C0008DB0C0008F1
:100C1C00CD0D0008F10E0008A64B02221A60A64B5F
:100C2C001B68A64A1360322000F0C8FD322000F089
:100C3C00E1FD322000F0FAFD002000F091FB0346AC
:100C4C00002B00F0CA819B4B4FF0FF321A609C4B7B
:100C5C000C221A60994B4FF0FF321A60FFF7A0FA82
:100C6C00FFF7BEFA08219748FFF76AFA402195482A
:100C7C00FFF766FA00224FF48051924801F02DFAEA
:100C8C0001230A93904B09938F4B08938E4B079338
:100C9C008D4B06938C4B05938B4B04938A4B039390
:100CAC004023029320230193102300930823042252
:100CBC0002210120FFF702FB00F0D4FD00F0E2FD61
:100CCC0000F0F0FD4FF4FA7000F0B0FD85E17F4BC1
:100CDC001B68012B1CD1774B02221A6040217948EA
:100CEC00FFF72EFA80217748FFF73AFA4FF480711C
:100CFC007448FFF735FA764B1B68704A1360744BD7
:100D0C001B684FF47A7202FB03F3184600F056FD91
:100D1C00002000F025FB0346002B4ED0654B4FF016
:100D2C00FF321A60664B0C221A60644B4FF0FF3294
:100D3C001A60674B1B68674A1360674B1B68674AEE
:100D4C0013605D4B1B68664A1360FFF729FAFFF7C7
:100D5C0047FA08215B48FFF7F3F940215948FFF7A0
:100D6C00EFF900224FF48051564801F0B6F90123F7
:100D7C000A93554B0993544B0893534B0793524B7F
:100D8C000693514B0593504B04934F4B03934023C5
:100D9C0002932023019310230093082304220221A1
:100DAC000120FFF78BFA00F05DFD00F06BFD00F009
:100DBC0079FD4FF4FA7000F039FDFFF787FC0DE177
:100DCC00424B1B68012B1CD13A4B03221A604FF487
:100DDC0080713C48FFF7B4F940213A48FFF7C0F95D
:100DEC0080213848FFF7BCF9334B1B68334A13603A
:100DFC00314B1B684FF47A7202FB03F3184600F078
:100E0C00DDFC002000F0ACFA0346002B4ED0294B41
:100E1C004FF0FF321A602A4B0C221A60274B4FF00E
:100E2C00FF321A602A4B1B682A4A13602A4B1B6834
:100E3C002A4A1360204B1B68294A1360FFF7B0F94C
:100E4C00FFF7CEF908211F48FFF77AF940211D481A
:100E5C00FFF776F900224FF480511A4801F03DF962
:100E6C0001230A93184B0993174B0893164B0793BE
:100E7C00154B0693144B0593134B0493124B03938E
:100E8C004023029320230193102300930823042270
:100E9C0002210120FFF712FA00F0E4FC00F0F2FC52
:100EAC0000F000FD4FF4FA7000F0C0FCFFF70EFCF0
:100EBC0094E000BF48000020540000206C0000208B
:100ECC004C00002000080140000C01408C00002068
:100EDC00500000205C00002058000020640000201E
:100EEC00600000203F4B1B68012B1CD13E4B0122A4
:100EFC001A6080213D48FFF723F940213B48FFF75A
:100F0C002FF94FF480713948FFF72AF9384B1B68D9
:100F1C00384A1360364B1B684FF47A7202FB03F3AA
:100F2C00184600F04BFC002000F01AFA0346002B88
:100F3C004ED02D4B4FF0FF321A602F4B0C221A6003
:100F4C002C4B4FF0FF321A602C4B1B682C4A136051
:100F5C00274B1B682B4A13602B4B1B682B4A1360C7
:100F6C00FFF71EF9FFF73CF908212048FFF7E8F8D6
:100F7C0040211E48FFF7E4F800224FF480511B4833
:100F8C0001F0ABF801230A93214B0993204B0893F2
:100F9C001F4B07931E4B06931D4B05931C4B049341
:100FAC001B4B0393402302932023019310230093A4
:100FBC000823042202210120FFF780F900F052FCE3
:100FCC0000F060FC00F06EFC4FF4FA7000F02EFCA8
:100FDC00FFF77CFB02E000BF00E000BF00BFBD4696
:100FEC0080BD00BF8C00002048000020000801409C
:100FFC00580000206C0000204C0000205000002005
:10100C005C000020640000205400002060000020E0
:10101C00000C014080B58CB00CAF9B4B1B680E2BA9
:10102C0000F0A0800E2B00F324810C2B03D00D2B91
:10103C0000F0DD801DE1954B1B68012B0BD10821C5
:10104C009348FFF79DF840219148FFF799F84FF42A
:10105C00FA7000F0EBFB002000F082F90346002B45
:10106C0010D0894B0E221A60FFF79AF8102188488D
:10107C00FFF766F880218648FFF762F84FF4FA70A4
:10108C0000F0D4FB012000F06BF90346002B5DD07F
:10109C00804B1B6801337F4A13607E4B1B68632BAC
:1010AC0002DD7C4B00221A607A4B1B687A4A82FB69
:1010BC0003129210DB17D31A0A93784B0993774BD0
:1010CC000893764B0793754B0693744B0593734BB0
:1010DC000493724B03934023029320230193102318
:1010EC0000930823042202210120FFF7E7F8694B43
:1010FC001968694B83FB01239A10CB17D21A13463C
:10110C009B0013445B00CA1A0A92644B0993634B0D
:10111C000893624B0793614B0693604B05935F4BAF
:10112C0004935E4B03934FF4004302934FF48043BC
:10113C0001934FF4005300934FF480534FF400622B
:10114C004FF480614FF40070FFF7B8F8022000F004
:10115C0007F90346002B00F08E804E4B1B68504A5B
:10116C00136088E0494B1B68012B0BD110214848B8
:10117C00FFF706F880214648FFF702F84FF4FA70A3
:10118C0000F054FB002000F0EBF80346002B11D0CC
:10119C003D4B0D221A60FFF703F820213C48FEF767
:1011AC00CFFF4FF480713A48FEF7CAFF4FF4FA7044
:1011BC0000F03CFB012000F0D3F80346002B0BD0D1
:1011CC00384B1B680133374A1360364B1B68632B53
:1011DC0002DD344B00221A60022000F0C1F80346F5
:1011EC00002B4AD02F4B1B682F4A136045E0274B2E
:1011FC001B68012B0CD120212548FEF7C1FF4FF4B1
:10120C0080712348FEF7BCFF4FF4FA7000F00EFB20
:10121C00002000F0A5F80346002B0DD0234B002234
:10122C001A60234B00221A60174B4FF0FF321A60E2
:10123C00FEF7B6FFFEF7D4FF012000F091F803464D
:10124C00002B0BD01B4B1B6801331A4A1360194B34
:10125C001B68632B02DD174B00221A60022000F082
:10126C007FF80346002B0AD0124B1B68124A1360FE
:10127C0005E000BF04E000BF02E000BF00E000BFDB
:10128C0000BFBD4680BD00BF4C0000209400002074
:10129C00000801405C00002067666666000C014097
:1012AC005000002064000020580000204400002062
:1012BC0048000020600000205400002080B582B05F
:1012CC0000AF78607B68032B1FD801A252F823F083
:1012DC00ED120008FB120008091300081B1300088C
:1012EC004FF400710D4800F0E1FE034611E04FF49D
:1012FC0080610A4800F0DAFE03460AE04FF4006110
:10130C00064800F0D3FE034603E0012301E000BFD2
:10131C00012318460837BD4680BD00BF00080140B8
:10132C0080B483B000AF7860044A7B68012142F836
:10133C00231000BF0C37BD4680BC704770000020E6
:10134C0080B483B000AF7860044A7B68012142F816
:10135C00231000BF0C37BD4680BC70477C000020BA
:10136C0080B483B000AF78607B68022B02DD4FF055
:10137C00FF330DE0094A7B6852F82330012B06D16C
:10138C00064A7B68002142F82310012300E0002369
:10139C0018460C37BD4680BC704700BF700000205B
:1013AC0080B483B000AF78607B68022B02DD4FF015
:1013BC00FF330DE0094A7B6852F82330012B06D12C
:1013CC00064A7B68002142F82310012300E0002329
:1013DC0018460C37BD4680BC704700BF7C0000200F
:1013EC0080B582B000AF00237B6077E03F4A7B681A
:1013FC00134419783E4A7B6813440A461A703D4AD6
:10140C007B6813441978394A7B6813440A461A706E
:10141C007868FFF753FF03461946364A7B68134436
:10142C000A461A70314A7B6813441A7831497B6832
:10143C000B441B789A424ED12C4A7B6813441A7881
:10144C002B497B680B441B789A4244D1284A7B6811
:10145C0013441A7828497B680B441B789A421AD09B
:10146C00234A7B6813441978234A7B6813440A4641
:10147C001A707868FFF794FF1F4A7B6813441B7837
:10148C00002B28D11D4A7B68642142F82310786810
:10149C00FFF746FF1FE0194A7B6852F823305A1EAB
:1014AC0016497B6841F82320144A7B6852F8233094
:1014BC00002B10DC0E4A7B6813441B78002B05D1E3
:1014CC007868FFF74DFF7868FFF73AFF0B4A7B68A7
:1014DC00642142F823107B6801337B607B68022B0C
:1014EC0084DD00BF00BF0837BD4680BD040000206E
:1014FC0008000020000000200C000020100000203C
:10150C0080B500AF00F0E8FA00F03EF800F0C4F847
:10151C0000F076F8134801F049FA134B05221A60D3
:10152C00124B03221A60124B02221A60114B00223A
:10153C001A60114B00221A60104B4FF0FF321A60E8
:10154C000F4B00221A600F4B00221A60FEF728FE88
:10155C00FEF746FEFFF732F9FFF74AFBFFF75AFD9D
:10156C00F8E700BFA8000020500000205400002025
:10157C005800002044000020480000204C000020AF
:10158C00680000206C00002080B590B000AF07F11F
:10159C00180328220021184601F0C0FD3B1D002233
:1015AC001A605A609A60DA601A610223BB610123E7
:1015BC00BB621023FB6200237B6307F11803184600
:1015CC0000F0BCFD0346002B01D000F0D5F80F2332
:1015DC007B600023BB600023FB6000233B61002386
:1015EC007B613B1D0021184601F028F80346002BB7
:1015FC0001D000F0C1F800BF4037BD4680BD0000EF
:10160C0080B586B000AF07F1080300221A605A605B
:10161C009A60DA603B4600221A605A601D4B4FF00C
:10162C0080421A601B4B41F63F725A60194B0022E4
:10163C009A60184B0922DA60164B00221A61154B7E
:10164C0000229A61134801F061F90346002B01D086
:10165C0000F092F84FF48053BB6007F10803194671
:10166C000C4801F0F7FA0346002B01D000F084F887
:10167C0000233B6000237B603B461946054801F084
:10168C00BFFC0346002B01D000F076F800BF1837E2
:10169C00BD4680BDA800002080B586B000AF07F124
:1016AC00080300221A605A609A60DA60294B9B6921
:1016BC00284A43F004039361264B9B6903F004030F
:1016CC007B607B68234B9B69224A43F00803936140
:1016DC00204B9B6903F008033B603B6800224FF2F0
:1016EC00F8111D4800F0F9FC00224FF67F611B48F1
:1016FC0000F0F3FC4FF2F813BB600123FB600023F6
:10170C003B6102237B6107F108031946124800F084
:10171C0053FB4FF67F63BB600123FB6000233B61EF
:10172C0002237B6107F1080319460C4800F044FBC7
:10173C004FF46063BB600023FB6001233B6107F146
:10174C0008031946044800F037FB00BF1837BD46A4
:10175C0080BD00BF0010024000080140000C014099
:10176C0080B582B000AF786000F0ACF8FFF738FEBF
:10177C0000BF0837BD4680BD80B400AF72B600BF55
:10178C00FEE7000080B483B000AF78607B68084A45
:10179C0082FB03129210DB17D31A064A1360064B16
:1017AC0000221A6000BF0C37BD4680BC704700BFDA
:1017BC0067666666980000208800002080B483B0BD
:1017CC0000AF78607B68084A82FB03129210DB172B
:1017DC00D31A064A1360064B00221A6000BF0C375E
:1017EC00BD4680BC704700BF676666669C000020E3
:1017FC008C00002080B483B000AF78607B68084A0E
:10180C0082FB03129210DB17D31A064A1360064BA5
:10181C0000221A6000BF0C37BD4680BC704700BF69
:10182C0067666666A00000209000002080B483B03C
:10183C0000AF78607B68084A82FB03129210DB17BA
:10184C00D31A064A1360064B00221A6000BF0C37ED
:10185C00BD4680BC704700BF67666666A40000206A
:10186C009400002080B400AF044B00221A60044B9B
:10187C0000221A6000BFBD4680BC70479800002053
:10188C008800002080B400AF044B00221A60044B87
:10189C0000221A6000BFBD4680BC70479C0000202F
:1018AC008C00002080B400AF044B00221A60044B63
:1018BC0000221A6000BFBD4680BC7047A00000200B
:1018CC009000002080B400AF214B1B68002B0BDD77
:1018DC001F4B1B68013B1E4A13601D4B1B68002BE2
:1018EC0002DC1C4B01221A601B4B1B68002B0BDD0E
:1018FC00194B1B68013B184A1360174B1B68002BD4
:10190C0002DC164B01221A60154B1B68002B0BDDF9
:10191C00134B1B68013B124A1360114B1B68002BC5
:10192C0002DC104B01221A600F4B1B68002B0BDDE5
:10193C000D4B1B68013B0C4A13600B4B1B68002BB7
:10194C0002DC0A4B01221A6000BFBD4680BC704706
:10195C0098000020880000209C0000208C000020B3
:10196C00A000002090000020A40000209400002083
:10197C0080B485B000AF154B9B69144A43F001034A
:10198C009361124B9B6903F00103BB60BB680F4B67
:10199C00DB690E4A43F08053D3610C4BDB6903F0D7
:1019AC0080537B607B680A4B5B68FB60FB6823F0B1
:1019BC00E063FB60FB6843F08063FB60044AFB68F8
:1019CC00536000BF1437BD4680BC70470010024006
:1019DC000000014080B584B000AF78607B681B6864
:1019EC00B3F1804F13D10C4BDB690B4A43F001036D
:1019FC00D361094BDB6903F00103FB60FB68002238
:101A0C0000211C2000F0A1F91C2000F0BAF900BF45
:101A1C001037BD4680BD00BF0010024080B400AF3F
:101A2C00FEE780B400AFFEE780B400AFFEE780B401
:101A3C0000AFFEE780B400AFFEE780B400AF00BF9C
:101A4C00BD4680BC704780B400AF00BFBD4680BCB3
:101A5C00704780B400AF00BFBD4680BC704780B5F6
:101A6C0000AF00F07FF800BF80BD000080B500AF74
:101A7C00024800F0E7FF00BF80BD00BFA8000020B7
:101A8C0080B400AF00BFBD4680BC70470C480D4908
:101A9C000D4A002302E0D458C4500433C4188C42BD
:101AAC00F9D30A4A0A4C002301E013600432A24223
:101ABC00FBD3FFF7E5FF01F00DFBFFF721FD7047AE
:101ACC0000000020280000207831000828000020A9
:101ADC00F4000020FEE7000080B500AF084B1B6847
:101AEC00074A43F010031360032000F023F90F2082
:101AFC0000F008F8FFF73CFF0023184680BD00BF3C
:101B0C000020024080B582B000AF7860124B1A689A
:101B1C00124B1B7819464FF47A73B3FBF1F3B2FBFB
:101B2C00F3F3184600F03BF90346002B01D00123D8
:101B3C000EE07B680F2B0AD8002279684FF0FF303B
:101B4C0000F003F9064A7B681360002300E00123D0
:101B5C0018460837BD4680BD1C000020240000201C
:101B6C002000002080B400AF054B1B781A46054BB3
:101B7C001B681344034A136000BFBD4680BC70470A
:101B8C0024000020F000002080B400AF024B1B6842
:101B9C001846BD4680BC7047F000002080B485B06C
:101BAC0000AF78607B6803F00703FB600C4BDB68CD
:101BBC00BB60BA684FF6FF031340BB60FB681A02A8
:101BCC00BB68134343F0BF6343F40033BB60044A68
:101BDC00BB68D36000BF1437BD4680BC704700BFE4
:101BEC0000ED00E080B400AF044BDB681B0A03F08F
:101BFC0007031846BD4680BC704700BF00ED00E0EF
:101C0C0080B483B000AF0346FB7197F90730002B0B
:101C1C000BDBFB7903F01F02064997F907305B09D0
:101C2C00012000FA02F241F8232000BF0C37BD4618
:101C3C0080BC704700E100E080B483B000AF034685
:101C4C003960FB7197F90730002B0ADB3B68DAB27D
:101C5C000C4997F907301201D2B20B4483F80023D8
:101C6C000AE03B68DAB20849FB7903F00F03043B46
:101C7C001201D2B20B441A7600BF0C37BD4680BCA1
:101C8C00704700BF00E100E000ED00E080B489B0D7
:101C9C0000AFF860B9607A60FB6803F00703FB6182
:101CAC00FB69C3F10703042B28BF0423BB61FB6949
:101CBC000433062B02D9FB69033B00E000237B6154
:101CCC004FF0FF32BB6902FA03F3DA43BB681A40E8
:101CDC007B699A404FF0FF317B6901FA03F3D943DA
:101CEC007B680B40134318462437BD4680BC7047B5
:101CFC0080B582B000AF78607B68013BB3F1807F28
:101D0C0001D301230FE00A4A7B68013B53600F218A
:101D1C004FF0FF30FFF790FF054B00229A60044B09
:101D2C0007221A60002318460837BD4680BD00BF45
:101D3C0010E000E080B582B000AF78607868FFF703
:101D4C002DFF00BF0837BD4680BD80B586B000AF03
:101D5C000346B9607A60FB7300237B61FFF742FF97
:101D6C0078617A68B9687869FFF790FF024697F94D
:101D7C000F3011461846FFF75FFF00BF1837BD46FE
:101D8C0080BD80B582B000AF0346FB7197F9073078
:101D9C001846FFF735FF00BF0837BD4680BD80B53C
:101DAC0082B000AF78607868FFF7A2FF0346184650
:101DBC000837BD4680BD000080B48BB000AF7860A2
:101DCC00396000237B6200233B6248E101227B6A7D
:101DDC0002FA03F3FB613B681B68FA691340BB61B1
:101DEC00BA69FB699A4240F037813B685B68A34A49
:101DFC0093425ED0A14A934275D8A14A934258D0DF
:101E0C009F4A93426FD89F4A934252D09D4A934225
:101E1C0069D89D4A93424CD09B4A934263D89B4AC3
:101E2C00934246D0994A93425DD8122B2AD8122B52
:101E3C0059D801A252F823F0BF1E0008991E0008C1
:101E4C00AB1E0008ED1E0008F31E0008F31E000870
:101E5C00F31E0008F31E0008F31E0008F31E000812
:101E6C00F31E0008F31E0008F31E0008F31E000802
:101E7C00F31E0008F31E0008F31E0008A11E000844
:101E8C00B51E0008824A934213D02CE03B68DB68F5
:101E9C003B6229E03B68DB6804333B6224E03B682F
:101EAC00DB6808333B621FE03B68DB680C333B624A
:101EBC001AE03B689B68002B02D104233B6213E0C1
:101ECC003B689B68012B05D108233B627B68FA6950
:101EDC001A6109E008233B627B68FA695A6103E0E6
:101EEC0000233B6200E000BFBB69FF2B01D87B687D
:101EFC0001E07B6804337B61BB69FF2B02D87B6AF2
:101F0C009B0002E07B6A083B9B003B617B691A6883
:101F1C000F213B6901FA03F3DB431A40396A3B6931
:101F2C0001FA03F31A437B691A603B685B6803F0A0
:101F3C008053002B00F09080564B9B69554A43F020
:101F4C0001039361534B9B6903F00103BB60BB68B6
:101F5C00514A7B6A9B08023352F82330FB607B6A40
:101F6C0003F003039B000F2202FA03F3DB43FA682E
:101F7C001340FB607B68494A93420DD07B68484A0A
:101F8C00934207D07B68474A934201D1022304E075
:101F9C00032302E0012300E000237A6A02F003022B
:101FAC0092009340FA681343FB603B497B6A9B08A1
:101FBC000233FA6841F823203B685B6803F48033F2
:101FCC00002B06D0384B1A683749BB6913430B609A
:101FDC0006E0354B1A68BB69DB43334913400B6091
:101FEC003B685B6803F40033002B06D02E4B5A6819
:101FFC002D49BB6913434B6006E02B4B5A68BB69F8
:10200C00DB43294913404B603B685B6803F4801346
:10201C00002B06D0244B9A682349BB6913438B6071
:10202C0006E0214B9A68BB69DB431F4913408B6068
:10203C003B685B6803F40013002B06D01A4BDA687C
:10204C001949BB691343CB6006E0174BDA68BB69CF
:10205C00DB4315491340CB607B6A01337B623B68E1
:10206C001A687B6A22FA03F3002B7FF4AFAE00BF31
:10207C0000BF2C37BD4680BC704700BF000032103B
:10208C00000031100000221000002110000012107E
:10209C000000111000100240000001400008014037
:1020AC00000C0140001001400004014080B485B0D8
:1020BC0000AF78600B467B807B689A687B88134006
:1020CC00002B02D00123FB7301E00023FB73FB7B8D
:1020DC0018461437BD4680BC704780B483B000AF3F
:1020EC0078600B467B8013467B707B78002B03D08B
:1020FC007A887B681A6103E07B881A047B681A6112
:10210C0000BF0C37BD4680BC704780B485B000AFB3
:10211C0078600B467B807B68DB68FB607A88FB68A9
:10212C0013401A04FB68D9437B880B401A437B6825
:10213C001A6100BF1437BD4680BC704780B586B0AD
:10214C0000AF78607B68002B01D101236CE27B68C7
:10215C001B6803F00103002B00F08780924B5B6837
:10216C0003F00C03042B0CD08F4B5B6803F00C03B7
:10217C00082B12D18C4B5B6803F48033B3F5803F92
:10218C000BD1894B1B6803F40033002B6CD07B689C
:10219C005B68002B68D1012346E27B685B68B3F572
:1021AC00803F06D1804B1B687F4A43F48033136019
:1021BC002EE07B685B68002B0CD17B4B1B687A4A4A
:1021CC0023F480331360784B1B68774A23F4802305
:1021DC0013601DE07B685B68B3F5A02F0CD1724BCC
:1021EC001B68714A43F4802313606F4B1B686E4A63
:1021FC0043F4803313600BE06B4B1B686A4A23F487
:10220C0080331360684B1B68674A23F48023136088
:10221C007B685B68002B13D0FFF7B6FC386108E0D5
:10222C00FFF7B2FC02463B69D31A642B01D9032396
:10223C00FAE15D4B1B6803F40033002BF0D014E083
:10224C00FFF7A2FC386108E0FFF79EFC02463B69F1
:10225C00D31A642B01D90323E6E1534B1B6803F417
:10226C000033002BF0D100E000BF7B681B6803F04B
:10227C000203002B63D04C4B5B6803F00C03002B68
:10228C000BD0494B5B6803F00C03082B1CD1464B5D
:10229C005B6803F48033002B16D1434B1B6803F0AF
:1022AC000203002B05D07B681B69012B01D0012395
:1022BC00BAE13D4B1B6823F0F8027B685B69DB00DD
:1022CC00394913430B603AE07B681B69002B20D023
:1022DC00364B01221A60FFF757FC386108E0FFF714
:1022EC0053FC02463B69D31A022B01D903239BE111
:1022FC002D4B1B6803F00203002BF0D02A4B1B68FC
:10230C0023F0F8027B685B69DB00274913430B6001
:10231C0015E0264B00221A60FFF736FC386108E006
:10232C00FFF732FC02463B69D31A022B01D9032377
:10233C007AE11D4B1B6803F00203002BF0D17B6884
:10234C001B6803F00803002B3AD07B689B69002BB9
:10235C0019D0174B01221A60FFF716FC386108E000
:10236C00FFF712FC02463B69D31A022B01D9032357
:10237C005AE10D4B5B6A03F00203002BF0D00120F5
:10238C0000F0A6FA1CE00A4B00221A60FFF7FCFBD7
:10239C0038610FE0FFF7F8FB02463B69D31A022BBA
:1023AC0008D9032340E100BF001002400000424264
:1023BC00800442429E4B5B6A03F00203002BE9D17E
:1023CC007B681B6803F00403002B00F0A68000233D
:1023DC00FB75974BDB6903F08053002B0DD1944BAD
:1023EC00DB69934A43F08053D361914BDB6903F073
:1023FC008053BB60BB680123FB758E4B1B6803F4D9
:10240C008073002B18D18B4B1B688A4A43F4807362
:10241C001360FFF7B9FB386108E0FFF7B5FB024624
:10242C003B69D31A642B01D90323FDE0814B1B6854
:10243C0003F48073002BF0D07B68DB68012B06D192
:10244C007B4B1B6A7A4A43F0010313622DE07B68D5
:10245C00DB68002B0CD1764B1B6A754A23F0010309
:10246C001362734B1B6A724A23F0040313621CE061
:10247C007B68DB68052B0CD16D4B1B6A6C4A43F0F7
:10248C00040313626A4B1B6A694A43F0010313622B
:10249C000BE0674B1B6A664A23F001031362644B23
:1024AC001B6A634A23F0040313627B68DB68002B0E
:1024BC0015D0FFF769FB38610AE0FFF765FB0246B0
:1024CC003B69D31A41F28832934201D90323ABE022
:1024DC00574B1B6A03F00203002BEED014E0FFF7FE
:1024EC0053FB38610AE0FFF74FFB02463B69D31AF6
:1024FC0041F28832934201D9032395E04C4B1B6A7D
:10250C0003F00203002BEED1FB7D012B05D1484BD0
:10251C00DB69474A23F08053D3617B68DB69002B6E
:10252C0000F08180424B5B6803F00C03082B61D0F8
:10253C007B68DB69022B46D13F4B00221A60FFF708
:10254C0023FB386108E0FFF71FFB02463B69D31AF7
:10255C00022B01D9032367E0354B1B6803F0007392
:10256C00002BF0D17B681B6AB3F5803F08D1304B50
:10257C005B6823F400327B689B682D4913434B60E6
:10258C002B4B5B6823F474127B68196A7B685B6A5B
:10259C000B43274913434B60274B01221A60FFF76B
:1025AC00F3FA386108E0FFF7EFFA02463B69D31AF9
:1025BC00022B01D9032337E01D4B1B6803F000737A
:1025CC00002BF0D02FE01C4B00221A60FFF7DCFA36
:1025DC00386108E0FFF7D8FA02463B69D31A022BA0
:1025EC0001D9032320E0124B1B6803F00073002B6E
:1025FC00F0D118E07B68DB69012B01D1012313E0DA
:10260C000B4B5B68FB60FB6803F480327B681B6AD6
:10261C009A4206D1FB6803F470127B685B6A9A429B
:10262C0001D0012300E0002318461837BD4680BDB9
:10263C0000100240007000406000424280B584B03F
:10264C0000AF786039607B68002B01D10123D0E0AA
:10265C006A4B1B6803F007033A689A4210D9674B20
:10266C001B6823F0070265493B6813430B60634BFF
:10267C001B6803F007033A689A4201D00123B8E0C3
:10268C007B681B6803F00203002B20D07B681B685F
:10269C0003F00403002B05D0594B5B68584A43F4F4
:1026AC00E06353607B681B6803F00803002B05D0C4
:1026BC00534B5B68524A43F460535360504B5B6816
:1026CC0023F0F0027B689B684D4913434B607B6899
:1026DC001B6803F00103002B40D07B685B68012B67
:1026EC0007D1474B1B6803F40033002B15D1012392
:1026FC007FE07B685B68022B07D1414B1B6803F0C2
:10270C000073002B09D1012373E03D4B1B6803F0D0
:10271C000203002B01D101236BE0394B5B6823F0E2
:10272C0003027B685B68364913434B60FFF72CFA56
:10273C00F8600AE0FFF728FA0246FB68D31A41F268
:10274C008832934201D9032353E02D4B5B6803F08D
:10275C000C027B685B689B009A42EBD1274B1B6891
:10276C0003F007033A689A4210D2244B1B6823F0FB
:10277C00070222493B6813430B60204B1B6803F094
:10278C0007033A689A4201D0012332E07B681B6848
:10279C0003F00403002B08D0194B5B6823F4E062B0
:1027AC007B68DB68164913434B607B681B6803F03E
:1027BC000803002B09D0124B5B6823F460527B6832
:1027CC001B69DB000E4913434B6000F021F80246F5
:1027DC000B4B5B681B0903F00F030A49CB5C22FA15
:1027EC0003F3094A1360094B1B681846FFF78AF973
:1027FC00002318461037BD4680BD00BF00200240A4
:10280C0000100240603100081C0000202000002055
:10281C0090B48AB000AF2A4B3C1D0FCB84E80F005C
:10282C0040F201233B800023FB610023BB610023AA
:10283C007B6200237B6100233B62224B5B68FB6164
:10284C00FB6903F00C03042B02D0082B03D02DE002
:10285C001D4B3B622DE0FB699B0C03F00F0307F152
:10286C002802134413F8243C7B61FB6903F4803386
:10287C00002B13D0134B5B685B0C03F0010307F1C7
:10288C002802134413F8283CBB617B690E4A02FBF7
:10289C0003F2BB69B2FBF3F37B6204E07B690B4A86
:1028AC0002FB03F37B627B6A3B6202E0064B3B62FA
:1028BC0000BF3B6A18462837BD4690BC704700BF26
:1028CC00503100080010024000127A0000093D004F
:1028DC0080B485B000AF78600A4B1B680A4AA2FB33
:1028EC0003235B0A7A6802FB03F3FB6000BFFB68FF
:1028FC005A1EFA60002BF9D100BF00BF1437BD4639
:10290C0080BC70471C000020D34D621080B582B093
:10291C0000AF78607B68002B01D1012341E07B681C
:10292C0093F83D30DBB2002B06D17B68002283F894
:10293C003C207868FFF74EF87B68022283F83D2034
:10294C007B681A687B6804331946104600F06AFAF3
:10295C007B68012283F846207B68012283F83E20A5
:10296C007B68012283F83F207B68012283F840209A
:10297C007B68012283F841207B68012283F8422086
:10298C007B68012283F843207B68012283F8442072
:10299C007B68012283F845207B68012283F83D2067
:1029AC00002318460837BD4680BD000080B485B0B2
:1029BC0000AF78607B6893F83D30DBB2012B01D01F
:1029CC00012335E07B68022283F83D207B681B687D
:1029DC00DA687B681B6842F00102DA607B681B686E
:1029EC00164A934209D07B681B68B3F1804F04D020
:1029FC007B681B68124A934211D17B681B689B68E9
:102A0C0003F00703FB60FB68062B10D07B681B6888
:102A1C001A687B681B6842F001021A6007E07B6849
:102A2C001B681A687B681B6842F001021A6000235D
:102A3C0018461437BD4680BC704700BF002C0140BF
:102A4C000004004080B582B000AF78607B681B68E2
:102A5C001B6903F00203022B22D17B681B68DB6825
:102A6C0003F00203022B1BD17B681B686FF0020280
:102A7C001A617B6801221A777B681B689B6903F0DB
:102A8C000303002B03D0786800F0B1F905E07868F7
:102A9C0000F0A4F9786800F0B3F97B6800221A778B
:102AAC007B681B681B6903F00403042B22D17B6831
:102ABC001B68DB6803F00403042B1BD17B681B68C9
:102ACC006FF004021A617B6802221A777B681B681C
:102ADC009B6903F44073002B03D0786800F087F9EE
:102AEC0005E0786800F07AF9786800F089F97B687D
:102AFC0000221A777B681B681B6903F00803082BFC
:102B0C0022D17B681B68DB6803F00803082B1BD100
:102B1C007B681B686FF008021A617B6804221A77C5
:102B2C007B681B68DB6903F00303002B03D0786818
:102B3C0000F05DF905E0786800F050F9786800F075
:102B4C005FF97B6800221A777B681B681B6903F0AE
:102B5C001003102B22D17B681B68DB6803F0100379
:102B6C00102B1BD17B681B686FF010021A617B68FD
:102B7C0008221A777B681B68DB6903F44073002B0F
:102B8C0003D0786800F033F905E0786800F026F996
:102B9C00786800F035F97B6800221A777B681B682F
:102BAC001B6903F00103012B0ED17B681B68DB68EA
:102BBC0003F00103012B07D17B681B686FF0010246
:102BCC001A617868FEF7CCFD7B681B681B6903F003
:102BDC008003802B0ED17B681B68DB6803F08003BD
:102BEC00802B07D17B681B686FF080021A617868B4
:102BFC0000F067FA7B681B681B6903F04003402BED
:102C0C000ED17B681B68DB6803F04003402B07D1B7
:102C1C007B681B686FF040021A61786800F0F9F865
:102C2C007B681B681B6903F02003202B0ED17B688B
:102C3C001B68DB6803F02003202B07D17B681B6823
:102C4C006FF020021A61786800F032FA00BF083782
:102C5C00BD4680BD80B584B000AF786039607B68BC
:102C6C0093F83C30012B01D10223B3E07B680122A5
:102C7C0083F83C207B68022283F83D207B681B682C
:102C8C009B68FB60FB6823F07703FB60FB6823F415
:102C9C007F43FB607B681B68FA689A603B681B6823
:102CAC00B3F5005F3ED0B3F5005F00F28780B3F55B
:102CBC00805F00F08580B3F5805F7FD8702B1AD0D1
:102CCC00702B7BD8602B50D0602B77D8502B3CD0FE
:102CDC00502B73D8402B58D0402B6FD8302B64D04E
:102CEC00302B6BD8202B60D0202B67D8002B5CD0DE
:102CFC00102B5AD062E07B6818683B6899683B6877
:102D0C005A683B68DB6800F05CF97B681B689B6861
:102D1C00FB60FB6843F07703FB607B681B68FA6819
:102D2C009A604EE07B6818683B6899683B685A6803
:102D3C003B68DB6800F045F97B681B689A687B6828
:102D4C001B6842F480429A603BE07B6818683B68E1
:102D5C0059683B68DB681A4600F0BCF87B681B6856
:102D6C005021184600F013F92BE07B6818683B687B
:102D7C0059683B68DB681A4600F0DAF87B681B6818
:102D8C006021184600F003F91BE07B6818683B686B
:102D9C0059683B68DB681A4600F09CF87B681B6836
:102DAC004021184600F0F3F80BE07B681A683B688A
:102DBC001B681946104600F0EAF802E000BF00E07C
:102DCC0000BF7B68012283F83D207B68002283F8DA
:102DDC003C20002318461037BD4680BD80B483B01C
:102DEC0000AF786000BF0C37BD4680BC704780B424
:102DFC0083B000AF786000BF0C37BD4680BC704715
:102E0C0080B483B000AF786000BF0C37BD4680BC87
:102E1C00704780B483B000AF786000BF0C37BD46FC
:102E2C0080BC704780B485B000AF786039607B6837
:102E3C001B68FB607B68254A934207D07B68B3F123
:102E4C00804F03D07B68224A934208D1FB6823F061
:102E5C007003FB603B685B68FA681343FB607B683C
:102E6C001A4A934207D07B68B3F1804F03D07B683A
:102E7C00174A934208D1FB6823F44073FB603B680C
:102E8C00DB68FA681343FB60FB6823F080023B6845
:102E9C005B691343FB607B68FA681A603B689A684D
:102EAC007B68DA623B681A687B689A627B68074ABF
:102EBC00934203D13B681A697B681A637B680122D1
:102ECC005A6100BF1437BD4680BC7047002C0140CE
:102EDC000004004080B487B000AFF860B9607A603D
:102EEC00FB681B6A7B61FB681B6A23F00102FB68B1
:102EFC001A62FB689B693B613B6923F0F0033B6101
:102F0C007B681B013A6913433B617B6923F00A031D
:102F1C007B617A69BB6813437B61FB683A699A6190
:102F2C00FB687A691A6200BF1C37BD4680BC7047CB
:102F3C0080B487B000AFF860B9607A60FB681B6A38
:102F4C0023F01002FB681A62FB689B697B61FB68CB
:102F5C001B6A3B617B6923F470437B617B681B03B9
:102F6C007A6913437B613B6923F0A0033B61BB6827
:102F7C001B013A6913433B61FB687A699A61FB68F0
:102F8C003A691A6200BF1C37BD4680BC704780B4DA
:102F9C0085B000AF786039607B689B68FB60FB682C
:102FAC0023F07003FB603A68FB68134343F007039C
:102FBC00FB607B68FA689A6000BF1437BD4680BC22
:102FCC00704780B487B000AFF860B9607A603B603E
:102FDC00FB689B687B617B6923F47F437B613B6867
:102FEC001A027B681A43BB6813437A6913437B61EB
:102FFC00FB687A699A6000BF1C37BD4680BC70477D
:10300C0080B485B000AF786039607B6893F83C3051
:10301C00012B01D1022341E07B68012283F83C2083
:10302C007B68022283F83D207B681B685B68FB6031
:10303C007B681B689B68BB60FB6823F07003FB60BC
:10304C003B681B68FA681343FB607B681B68FA6873
:10305C005A607B681B68144A934209D07B681B68D2
:10306C00B3F1804F04D07B681B68104A93420CD19B
:10307C00BB6823F08003BB603B685B68BA68134392
:10308C00BB607B681B68BA689A607B68012283F816
:10309C003D207B68002283F83C200023184614371F
:1030AC00BD4680BC704700BF002C014000040040AE
:1030BC0080B483B000AF786000BF0C37BD4680BCD5
:1030CC00704780B483B000AF786000BF0C37BD464A
:1030DC0080BC704770B500260C4D0D4C641BA410C1
:1030EC00A64209D100F022F800260A4D0A4C641BB6
:1030FC00A410A64205D170BD55F8043B9847013683
:10310C00EEE755F8043B98470136F2E770310008BA
:10311C007031000870310008743100080346024415
:10312C00934200D1704703F8011BF9E7F8B500BFD3
:10313C00F8BC08BC9E467047F8B500BFF8BC08BC8C
:04314C009E467047E4
:1031500002030405060708090A0B0C0D0E0F1010D8
:103160000000000000000000010203040607080937
:043170003101000821
:043174000D01000841
:103178000100000001000000010000000100000043
:103188006400000000000000000000000024F400BB
:0831980010000000010000001E
:0400000508001A993C
:00000001FF
