:020000040800F2
:100000000028002059150008E9140008EF14000822
:10001000F5140008FB14000801150008000000009A
:1000200000000000000000000000000007150008AC
:1000300013150008000000001F1500082B1500080C
:10004000A1150008A1150008A1150008A1150008B8
:10005000A1150008A1150008A1150008A1150008A8
:10006000A1150008A1150008A1150008A115000898
:10007000A1150008A1150008A1150008A115000888
:10008000A1150008A1150008A1150008A115000878
:10009000A1150008A1150008A1150008A115000868
:1000A000A1150008A1150008A1150008A115000858
:1000B00039150008A115000800000000A11500086E
:1000C000A11500080000000000000000A1150008B4
:1000D00000000000A1150008A115000800000000A4
:1000E000A1150008A1150008A115000800000000D6
:1000F0000000000000000000000000000000000000
:0C01000000000000000000005FF808F1A3
:10010C0010B5054C237833B9044B13B10448AFF345
:10011C0000800123237010BD280000200000000087
:10012C00F82B000808B5034B1BB103490348AFF388
:10013C00008008BD000000002C000020F82B0008F7
:10014C0080B582B000AF78600B467B807B88012243
:10015C001946786801F021FD00BF0837BD4680BD07
:10016C0080B582B000AF78600B467B807B88002224
:10017C001946786801F011FD00BF0837BD4680BDF7
:10018C0080B582B000AF78600B467B807B881946C7
:10019C00786801F01AFD00BF0837BD4680BD00002D
:1001AC0080B500AF08210D48FFF7DAFF10210B488E
:1001BC00FFF7D6FF20210948FFF7D2FF402107485F
:1001CC00FFF7CEFF80210548FFF7CAFF4FF480717F
:1001DC000248FFF7C5FF00BF80BD00BF000801400B
:1001EC0080B500AF01220121264801F0D6FC012286
:1001FC000221244801F0D1FC01220421214801F004
:10020C00CCFC012208211F4801F0C7FC012210215F
:10021C001C4801F0C2FC012220211A4801F0BDFC4F
:10022C0001224021174801F0B8FC01224FF4007163
:10023C00144801F0B2FC01224FF48061114801F026
:10024C00ACFC01224FF400610E4801F0A6FC012227
:10025C004FF480510B4801F0A0FC01224FF40051E7
:10026C00084801F09AFC01224FF48041054801F046
:10027C0094FC01224FF40041024801F08EFC00BFB7
:10028C0080BD00BF000C014090B583B000AF0446A8
:10029C00084611461A462346FB800346BB800B4694
:1002AC007B8013463B803B6C092B00F2C58101A27D
:1002BC0052F823F0E90200083F03000895030008F8
:1002CC00EB0300084104000897040008ED04000843
:1002DC004305000899050008EF050008FB8800227B
:1002EC001946786A01F059FCBB8800221946B86A95
:1002FC0001F053FC7B8800221946F86A01F04DFC92
:10030C003B8800221946386B01F047FC3B8B0022DE
:10031C001946786B01F041FCBB8B00221946B86B77
:10032C0001F03BFC3B8C01221946F86B01F035FCCB
:10033C00ADE1FB8801221946786A01F02EFCBB88DE
:10034C0000221946B86A01F028FC7B880022194665
:10035C00F86A01F022FC3B8801221946386B01F047
:10036C001CFC3B8B01221946786B01F016FCBB8BF5
:10037C0001221946B86B01F010FC3B8C0122194686
:10038C00F86B01F00AFC82E1FB8800221946786ABE
:10039C0001F003FCBB8800221946B86A01F0FDFB92
:1003AC007B8801221946F86A01F0F7FB3B88002292
:1003BC001946386B01F0F1FB3B8B00221946786B28
:1003CC0001F0EBFBBB8B01221946B86B01F0E5FB8E
:1003DC003B8C00221946F86B01F0DFFB57E1FB88E0
:1003EC0000221946786A01F0D8FBBB880022194616
:1003FC00B86A01F0D2FB7B8800221946F86A01F03A
:10040C00CCFB3B8800221946386B01F0C6FB3B8BBA
:10041C0001221946786B01F0C0FBBB8B01221946F7
:10042C00B86B01F0BAFB3B8C00221946F86B01F05B
:10043C00B4FB2CE1FB8801221946786A01F0ADFB74
:10044C00BB8800221946B86A01F0A7FB7B88002202
:10045C001946F86A01F0A1FB3B8801221946386B5A
:10046C0001F09BFB3B8B01221946786B01F095FB4D
:10047C00BB8B00221946B86B01F08FFB3B8C002222
:10048C001946F86B01F089FB01E1FB880022194643
:10049C00786A01F082FBBB8801221946B86A01F028
:1004AC007CFB7B8800221946F86A01F076FB3B88BE
:1004BC0000221946386B01F070FB3B8B0122194668
:1004CC00786B01F06AFBBB8B00221946B86B01F00C
:1004DC0064FB3B8C00221946F86B01F05EFBD6E006
:1004EC00FB8800221946786A01F057FBBB88012271
:1004FC001946B86A01F051FB7B8800221946F86A4C
:10050C0001F04BFB3B8800221946386B01F045FB90
:10051C003B8B00221946786B01F03FFBBB8B002212
:10052C001946B86B01F039FB3B8C00221946F86B6D
:10053C0001F033FBABE0FB8800221946786A01F02E
:10054C002CFBBB8800221946B86A01F026FB7B887D
:10055C0000221946F86A01F020FB3B88012219465B
:10056C00386B01F01AFB3B8B01221946786B01F0BA
:10057C0014FBBB8B01221946B86B01F00EFB3B8CB4
:10058C0001221946F86B01F008FB80E0FB88002281
:10059C001946786A01F001FBBB8800221946B86A3B
:1005AC0001F0FBFA7B8800221946F86A01F0F5FA93
:1005BC003B8800221946386B01F0EFFA3B8B002286
:1005CC001946786B01F0E9FABB8B00221946B86B1F
:1005DC0001F0E3FA3B8C00221946F86B01F0DDFACE
:1005EC0055E0FB8800221946786A01F0D6FABB88E0
:1005FC0000221946B86A01F0D0FA7B88002219460D
:10060C00F86A01F0CAFA3B8800221946386B01F0EF
:10061C00C4FA3B8B01221946786B01F0BEFABB8BF6
:10062C0000221946B86B01F0B8FA3B8C002219462F
:10063C00F86B01F0B2FA2AE0FB8801221946786ABD
:10064C0001F0ABFABB8801221946B86A01F0A5FA91
:10065C007B8801221946F86A01F09FFA3B88012237
:10066C001946386B01F099FA3B8B01221946786BCD
:10067C0001F093FABB8B01221946B86B01F08DFA8D
:10068C003B8C01221946F86B01F087FA00BF00BFC2
:10069C000C37BD4690BD00BF80B58CB00CAF294B5C
:1006AC001B68012B4AD1284B1B685A1E26490A602D
:1006BC000A93264B0993254B0893244B0793234B02
:1006CC000693224B0593214B0493204B0393402319
:1006DC000293202301931023009308230422022168
:1006EC000120FFF7D1FD1A4B1B685A1E18490A60EE
:1006FC000A93164B0993154B0893144B0793134B02
:10070C000693124B0593114B0493104B03934FF428
:10071C00004302934FF4804301934FF40053009332
:10072C004FF480534FF400624FF480614FF400702B
:10073C00FFF7AAFD4FF47A7000F0ECFD00BFBD4648
:10074C0080BD00BF9000002068000020000C01401C
:10075C006C00002080B500AF884B1B68032B00F2A7
:10076C00078101A252F823F085070008E50700086D
:10077C006D080008F5080008804B01221A60804BB8
:10078C001B68804A1360322000F08CFD322000F090
:10079C00C1FD002000F074FB0346002B00F0EA8042
:1007AC00764B4FF0FF321A60774B0C221A60754B68
:1007BC004FF0FF321A60FFF7F3FCFFF711FD082131
:1007CC007248FFF7BDFC40217048FFF7B9FC4FF4AD
:1007DC00FA7000F0BBFDCDE06D4B1B68012B1BD1FB
:1007EC00664B02221A6008216848FFF7A9FC102109
:1007FC006648FFF7B5FC20216448FFF7B1FC604B5D
:10080C001B68604A13605E4B1B684FF47A7202FBE4
:10081C0003F3184600F046FD002000F031FB0346C0
:10082C00002B1AD0554B4FF0FF321A60564B0C224E
:10083C001A60544B4FF0FF321A60FFF7B1FCFFF710
:10084C00CFFC08215148FFF77BFC40214F48FFF7B4
:10085C0077FC4FF4FA7000F079FDFFF71DFF8AE08A
:10086C004B4B1B68012B1BD1444B03221A602021DC
:10087C004648FFF765FC08214448FFF771FC10213E
:10088C004248FFF76DFC434B1B683E4A1360414BDB
:10089C001B684FF47A7202FB03F3184600F002FD5A
:1008AC00002000F0EDFA0346002B1AD0334B4FF02A
:1008BC00FF321A60344B0C221A60324B4FF0FF326D
:1008CC001A60FFF76DFCFFF78BFC08212F48FFF730
:1008DC0037FC40212D48FFF733FC4FF4FA7000F041
:1008EC0035FDFFF7D9FE46E0294B1B68012B1BD1C8
:1008FC00224B01221A6010212448FFF721FC082109
:10090C002248FFF72DFC20212048FFF729FC224B21
:10091C001B681C4A1360204B1B684FF47A7202FB55
:10092C0003F3184600F0BEFC002000F0A9FA0346C1
:10093C00002B1AD0114B4FF0FF321A60124B0C22C5
:10094C001A60104B4FF0FF321A60FFF729FCFFF7CB
:10095C0047FC08210D48FFF7F3FB40210B48FFF73C
:10096C00EFFB4FF4FA7000F0F1FCFFF795FE02E09C
:10097C0000BF00E000BF00BF80BD00BF44000020EE
:10098C0050000020680000204C00002000080140AE
:10099C0088000020540000205800002080B500AFD3
:1009AC00894B1B68032B00F20A8101A252F823F039
:1009BC00CD0900082D0A0008B70A0008410B0008F1
:1009CC00814B02221A60814B1B68814A13603220D2
:1009DC0000F084FC322000F09DFC002000F050FA66
:1009EC000346002B00F0ED80774B4FF0FF321A607E
:1009FC00784B0C221A60764B4FF0FF321A60FFF7DF
:100A0C00CFFBFFF7EDFB08217348FFF799FB402163
:100A1C007148FFF795FB4FF4FA7000F097FCD0E0AB
:100A2C006E4B1B68012B1CD1674B02221A604021B4
:100A3C006948FFF785FB80216748FFF791FB4FF46E
:100A4C0080716548FFF78CFB654B1B68604A13602F
:100A5C00634B1B684FF47A7202FB03F3184600F0E9
:100A6C003DFC002000F00CFA0346002B1AD0564B2C
:100A7C004FF0FF321A60574B0C221A60544B4FF058
:100A8C00FF321A60FFF78CFBFFF7AAFB08215248D4
:100A9C00FFF756FB40215048FFF752FB4FF4FA701A
:100AAC0000F054FCFFF7F8FD8CE04C4B1B68012B5D
:100ABC001CD1454B03221A604FF480714648FFF756
:100ACC003FFB40214448FFF74BFB80214248FFF796
:100ADC0047FB3E4B1B683E4A13603C4B1B684FF474
:100AEC007A7202FB03F3184600F0F8FB002000F0CA
:100AFC00C7F90346002B1AD0334B4FF0FF321A6064
:100B0C00344B0C221A60324B4FF0FF321A60FFF755
:100B1C0047FBFFF765FB08212F48FFF711FB40212E
:100B2C002D48FFF70DFB4FF4FA7000F00FFCFFF7A8
:100B3C00B3FD47E0294B1B68012B1CD1224B012232
:100B4C001A6080212448FFF7FBFA40212248FFF766
:100B5C0007FB4FF480712048FFF702FB214B1B6809
:100B6C001B4A13601F4B1B684FF47A7202FB03F392
:100B7C00184600F0B3FB002000F082F90346002B6E
:100B8C001AD0114B4FF0FF321A60124B0C221A6024
:100B9C000F4B4FF0FF321A60FFF702FBFFF720FB01
:100BAC0008210D48FFF7CCFA40210B48FFF7C8FA93
:100BBC004FF4FA7000F0CAFBFFF76EFD02E000BFC5
:100BCC0000E000BF00BF80BD4800002054000020A2
:100BDC006C0000204C000020000801408C0000201C
:100BEC00500000205800002080B500AF704B1B68EF
:100BFC000E2B4DD00E2B00F3D2800C2B03D00D2BD3
:100C0C0000F08B80CBE06B4B1B68012B0BD10821C8
:100C1C006948FFF7B5FA40216748FFF7B1FA4FF47E
:100C2C00FA7000F093FB002000F02AF90346002B29
:100C3C0010D05F4B0E221A60FFF7B2FA10215E48FB
:100C4C00FFF77EFA80215C48FFF77AFA4FF4FA70CE
:100C5C0000F07CFB012000F013F90346002B0BD0B5
:100C6C00564B1B680133554A1360544B1B68632B5E
:100C7C0002DD524B00221A60022000F001F90346FB
:100C8C00002B00F08E804D4B1B684D4A136088E0A2
:100C9C00484B1B68012B0BD110214748FFF770FA0A
:100CAC0080214548FFF76CFA4FF4FA7000F04EFBC8
:100CBC00002000F0E5F80346002B11D03C4B0D2230
:100CCC001A60FFF76DFA20213B48FFF739FA4FF411
:100CDC0080713948FFF734FA4FF4FA7000F036FBA4
:100CEC00012000F0CDF80346002B0BD0354B1B68D0
:100CFC000133344A1360334B1B68632B02DD314BD9
:100D0C0000221A60022000F0BBF80346002B4AD0E8
:100D1C002C4B1B682C4A136045E0264B1B68012B9F
:100D2C000CD120212448FFF72BFA4FF48071224874
:100D3C00FFF726FA4FF4FA7000F008FB002000F0E1
:100D4C009FF80346002B0DD0204B00221A60204B3D
:100D5C0000221A60164B4FF0FF321A60FFF720FA90
:100D6C00FFF73EFA012000F08BF80346002B0BD066
:100D7C00184B1B680133174A1360164B1B68632B07
:100D8C0002DD144B00221A60022000F079F80346B1
:100D9C00002B0AD00F4B1B680F4A136005E000BFF5
:100DAC0004E000BF02E000BF00E000BF00BF80BD58
:100DBC004C00002094000020000801405C00002042
:100DCC005000002064000020580000204400002047
:100DDC0048000020600000205400002080B582B044
:100DEC0000AF78607B68032B1FD801A252F823F068
:100DFC000D0E00081B0E0008290E00083B0E000803
:100E0C004FF400710D4800F0B1FE034611E04FF4B1
:100E1C0080610A4800F0AAFE03460AE04FF4006124
:100E2C00064800F0A3FE034603E0012301E000BFE7
:100E3C00012318460837BD4680BD00BF000801409D
:100E4C0080B483B000AF7860044A7B68012142F81B
:100E5C00231000BF0C37BD4680BC704770000020CB
:100E6C0080B483B000AF7860044A7B68012142F8FB
:100E7C00231000BF0C37BD4680BC70477C0000209F
:100E8C0080B483B000AF78607B68022B02DD4FF03A
:100E9C00FF330DE0094A7B6852F82330012B06D151
:100EAC00064A7B68002142F82310012300E000234E
:100EBC0018460C37BD4680BC704700BF7000002040
:100ECC0080B483B000AF78607B68022B02DD4FF0FA
:100EDC00FF330DE0094A7B6852F82330012B06D111
:100EEC00064A7B68002142F82310012300E000230E
:100EFC0018460C37BD4680BC704700BF7C000020F4
:100F0C0080B582B000AF00237B6077E03F4A7B68FE
:100F1C00134419783E4A7B6813440A461A703D4ABA
:100F2C007B6813441978394A7B6813440A461A7053
:100F3C007868FFF753FF03461946364A7B6813441B
:100F4C000A461A70314A7B6813441A7831497B6817
:100F5C000B441B789A424ED12C4A7B6813441A7866
:100F6C002B497B680B441B789A4244D1284A7B68F6
:100F7C0013441A7828497B680B441B789A421AD080
:100F8C00234A7B6813441978234A7B6813440A4626
:100F9C001A707868FFF794FF1F4A7B6813441B781C
:100FAC00002B28D11D4A7B68642142F823107868F5
:100FBC00FFF746FF1FE0194A7B6852F823305A1E90
:100FCC0016497B6841F82320144A7B6852F8233079
:100FDC00002B10DC0E4A7B6813441B78002B05D1C8
:100FEC007868FFF74DFF7868FFF73AFF0B4A7B688C
:100FFC00642142F823107B6801337B607B68022BF1
:10100C0084DD00BF00BF0837BD4680BD0400002052
:10101C0008000020000000200C0000201000002020
:10102C0080B500AF00F0B8FA00F03EF800F0C4F85C
:10103C0000F076F8134801F019FA134B05221A60E8
:10104C00124B03221A60124B02221A60114B00221F
:10105C001A60114B00221A60104B4FF0FF321A60CD
:10106C000F4B00221A600F4B00221A60FFF798F802
:10107C00FFF7B6F8FFF76EFBFFF790FCFFF7B4FD38
:10108C00F8E700BFA800002050000020540000200A
:10109C005800002044000020480000204C00002094
:1010AC00680000206C00002080B590B000AF07F104
:1010BC00180328220021184601F090FD3B1D002248
:1010CC001A605A609A60DA601A610223BB610123CC
:1010DC00BB621023FB6200237B6307F118031846E5
:1010EC0000F08CFD0346002B01D000F0D5F80F2347
:1010FC007B600023BB600023FB6000233B6100236B
:10110C007B613B1D0021184600F0F8FF0346002BC5
:10111C0001D000F0C1F800BF4037BD4680BD0000D3
:10112C0080B586B000AF07F1080300221A605A6040
:10113C009A60DA603B4600221A605A601D4B4FF0F1
:10114C0080421A601B4B41F63F725A60194B0022C9
:10115C009A60184B0922DA60164B00221A61154B63
:10116C0000229A61134801F031F90346002B01D09B
:10117C0000F092F84FF48053BB6007F10803194656
:10118C000C4801F0C7FA0346002B01D000F084F89C
:10119C0000233B6000237B603B461946054801F069
:1011AC008FFC0346002B01D000F076F800BF1837F7
:1011BC00BD4680BDA800002080B586B000AF07F109
:1011CC00080300221A605A609A60DA60294B9B6906
:1011DC00284A43F004039361264B9B6903F00403F4
:1011EC007B607B68234B9B69224A43F00803936125
:1011FC00204B9B6903F008033B603B6800224FF4D3
:10120C00FC711D4800F0C9FC00224FF67F611B48A1
:10121C0000F0C3FC4FF4FC73BB600123FB600023A4
:10122C003B6102237B6107F108031946124800F069
:10123C0023FB4FF67F63BB600123FB6000233B6104
:10124C0002237B6107F1080319460C4800F014FBDC
:10125C004FF46063BB600023FB6001233B6107F12B
:10126C0008031946044800F007FB00BF1837BD46B9
:10127C0080BD00BF0010024000080140000C01407E
:10128C0080B582B000AF786000F07CF8FFF738FED4
:10129C0000BF0837BD4680BD80B400AF72B600BF3A
:1012AC00FEE7000080B483B000AF78607B68084A2A
:1012BC0082FB03129210DB17D31A064A1360064BFB
:1012CC0000221A6000BF0C37BD4680BC704700BFBF
:1012DC0067666666980000208800002080B483B0A2
:1012EC0000AF78607B68084A82FB03129210DB1710
:1012FC00D31A064A1360064B00221A6000BF0C3743
:10130C00BD4680BC704700BF676666669C000020C7
:10131C008C00002080B483B000AF78607B68084AF2
:10132C0082FB03129210DB17D31A064A1360064B8A
:10133C0000221A6000BF0C37BD4680BC704700BF4E
:10134C0067666666A00000209000002080B483B021
:10135C0000AF78607B68084A82FB03129210DB179F
:10136C00D31A064A1360064B00221A6000BF0C37D2
:10137C00BD4680BC704700BF67666666A40000204F
:10138C009400002080B400AF214B1B68002B0BDDB8
:10139C001F4B1B68013B1E4A13601D4B1B68002B27
:1013AC0002DC1C4B01221A601B4B1B68002B0BDD53
:1013BC00194B1B68013B184A1360174B1B68002B19
:1013CC0002DC164B01221A60154B1B68002B0BDD3F
:1013DC00134B1B68013B124A1360114B1B68002B0B
:1013EC0002DC104B01221A600F4B1B68002B0BDD2B
:1013FC000D4B1B68013B0C4A13600B4B1B68002BFD
:10140C0002DC0A4B01221A6000BFBD4680BC70474B
:10141C0098000020880000209C0000208C000020F8
:10142C00A000002090000020A400002094000020C8
:10143C0080B485B000AF154B9B69144A43F001038F
:10144C009361124B9B6903F00103BB60BB680F4BAC
:10145C00DB690E4A43F08053D3610C4BDB6903F01C
:10146C0080537B607B680A4B5B68FB60FB6823F0F6
:10147C00E063FB60FB6843F08063FB60044AFB683D
:10148C00536000BF1437BD4680BC7047001002404B
:10149C000000014080B584B000AF78607B681B68A9
:1014AC00B3F1804F13D10C4BDB690B4A43F00103B2
:1014BC00D361094BDB6903F00103FB60FB6800227D
:1014CC0000211C2000F0A1F91C2000F0BAF900BF8B
:1014DC001037BD4680BD00BF0010024080B400AF85
:1014EC00FEE780B400AFFEE780B400AFFEE780B447
:1014FC0000AFFEE780B400AFFEE780B400AF00BFE2
:10150C00BD4680BC704780B400AF00BFBD4680BCF8
:10151C00704780B400AF00BFBD4680BC704780B53B
:10152C0000AF00F07FF800BF80BD000080B500AFB9
:10153C00024800F0E7FF00BF80BD00BFA8000020FC
:10154C0080B400AF00BFBD4680BC70470C480D494D
:10155C000D4A002302E0D458C4500433C4188C4202
:10156C00F9D30A4A0A4C002301E013600432A24268
:10157C00FBD3FFF7E5FF01F00DFBFFF751FD7047C3
:10158C000000002028000020382C00082800002033
:10159C00F4000020FEE7000080B500AF084B1B688C
:1015AC00074A43F010031360032000F023F90F20C7
:1015BC0000F008F8FFF73CFF0023184680BD00BF81
:1015CC000020024080B582B000AF7860124B1A68E0
:1015DC00124B1B7819464FF47A73B3FBF1F3B2FB41
:1015EC00F3F3184600F03BF90346002B01D001231E
:1015FC000EE07B680F2B0AD8002279684FF0FF3081
:10160C0000F003F9064A7B681360002300E0012315
:10161C0018460837BD4680BD1C0000202400002061
:10162C002000002080B400AF054B1B781A46054BF8
:10163C001B681344034A136000BFBD4680BC70474F
:10164C0024000020F000002080B400AF024B1B6887
:10165C001846BD4680BC7047F000002080B485B0B1
:10166C0000AF78607B6803F00703FB600C4BDB6812
:10167C00BB60BA684FF6FF031340BB60FB681A02ED
:10168C00BB68134343F0BF6343F40033BB60044AAD
:10169C00BB68D36000BF1437BD4680BC704700BF29
:1016AC0000ED00E080B400AF044BDB681B0A03F0D4
:1016BC0007031846BD4680BC704700BF00ED00E034
:1016CC0080B483B000AF0346FB7197F90730002B51
:1016DC000BDBFB7903F01F02064997F907305B0916
:1016EC00012000FA02F241F8232000BF0C37BD465E
:1016FC0080BC704700E100E080B483B000AF0346CB
:10170C003960FB7197F90730002B0ADB3B68DAB2C2
:10171C000C4997F907301201D2B20B4483F800231D
:10172C000AE03B68DAB20849FB7903F00F03043B8B
:10173C001201D2B20B441A7600BF0C37BD4680BCE6
:10174C00704700BF00E100E000ED00E080B489B01C
:10175C0000AFF860B9607A60FB6803F00703FB61C7
:10176C00FB69C3F10703042B28BF0423BB61FB698E
:10177C000433062B02D9FB69033B00E000237B6199
:10178C004FF0FF32BB6902FA03F3DA43BB681A402D
:10179C007B699A404FF0FF317B6901FA03F3D9431F
:1017AC007B680B40134318462437BD4680BC7047FA
:1017BC0080B582B000AF78607B68013BB3F1807F6D
:1017CC0001D301230FE00A4A7B68013B53600F21D0
:1017DC004FF0FF30FFF790FF054B00229A60044B4F
:1017EC0007221A60002318460837BD4680BD00BF8B
:1017FC0010E000E080B582B000AF78607868FFF749
:10180C002DFF00BF0837BD4680BD80B586B000AF48
:10181C000346B9607A60FB7300237B61FFF742FFDC
:10182C0078617A68B9687869FFF790FF024697F992
:10183C000F3011461846FFF75FFF00BF1837BD4643
:10184C0080BD80B582B000AF0346FB7197F90730BD
:10185C001846FFF735FF00BF0837BD4680BD80B581
:10186C0082B000AF78607868FFF7A2FF0346184695
:10187C000837BD4680BD000080B48BB000AF7860E7
:10188C00396000237B6200233B6248E101227B6AC2
:10189C0002FA03F3FB613B681B68FA691340BB61F6
:1018AC00BA69FB699A4240F037813B685B68A34A8E
:1018BC0093425ED0A14A934275D8A14A934258D024
:1018CC009F4A93426FD89F4A934252D09D4A93426B
:1018DC0069D89D4A93424CD09B4A934263D89B4A09
:1018EC00934246D0994A93425DD8122B2AD8122B98
:1018FC0059D801A252F823F07F1900085919000891
:10190C006B190008AD190008B3190008B3190008C9
:10191C00B3190008B3190008B3190008B31900086B
:10192C00B3190008B3190008B3190008B31900085B
:10193C00B3190008B3190008B3190008611900089D
:10194C0075190008824A934213D02CE03B68DB687F
:10195C003B6229E03B68DB6804333B6224E03B6874
:10196C00DB6808333B621FE03B68DB680C333B628F
:10197C001AE03B689B68002B02D104233B6213E006
:10198C003B689B68012B05D108233B627B68FA6995
:10199C001A6109E008233B627B68FA695A6103E02B
:1019AC0000233B6200E000BFBB69FF2B01D87B68C2
:1019BC0001E07B6804337B61BB69FF2B02D87B6A37
:1019CC009B0002E07B6A083B9B003B617B691A68C9
:1019DC000F213B6901FA03F3DB431A40396A3B6977
:1019EC0001FA03F31A437B691A603B685B6803F0E6
:1019FC008053002B00F09080564B9B69554A43F066
:101A0C0001039361534B9B6903F00103BB60BB68FB
:101A1C00514A7B6A9B08023352F82330FB607B6A85
:101A2C0003F003039B000F2202FA03F3DB43FA6873
:101A3C001340FB607B68494A93420DD07B68484A4F
:101A4C00934207D07B68474A934201D1022304E0BA
:101A5C00032302E0012300E000237A6A02F0030270
:101A6C0092009340FA681343FB603B497B6A9B08E6
:101A7C000233FA6841F823203B685B6803F4803337
:101A8C00002B06D0384B1A683749BB6913430B60DF
:101A9C0006E0354B1A68BB69DB43334913400B60D6
:101AAC003B685B6803F40033002B06D02E4B5A685E
:101ABC002D49BB6913434B6006E02B4B5A68BB693D
:101ACC00DB43294913404B603B685B6803F480138C
:101ADC00002B06D0244B9A682349BB6913438B60B7
:101AEC0006E0214B9A68BB69DB431F4913408B60AE
:101AFC003B685B6803F40013002B06D01A4BDA68C2
:101B0C001949BB691343CB6006E0174BDA68BB6914
:101B1C00DB4315491340CB607B6A01337B623B6826
:101B2C001A687B6A22FA03F3002B7FF4AFAE00BF76
:101B3C0000BF2C37BD4680BC704700BF0000321080
:101B4C0000003110000022100000211000001210C3
:101B5C00000011100010024000000140000801407C
:101B6C00000C0140001001400004014080B485B01D
:101B7C0000AF78600B467B807B689A687B8813404B
:101B8C00002B02D00123FB7301E00023FB73FB7BD2
:101B9C0018461437BD4680BC704780B483B000AF84
:101BAC0078600B467B8013467B707B78002B03D0D0
:101BBC007A887B681A6103E07B881A047B681A6157
:101BCC0000BF0C37BD4680BC704780B485B000AFF9
:101BDC0078600B467B807B68DB68FB607A88FB68EF
:101BEC0013401A04FB68D9437B880B401A437B686B
:101BFC001A6100BF1437BD4680BC704780B586B0F3
:101C0C0000AF78607B68002B01D101236CE27B680C
:101C1C001B6803F00103002B00F08780924B5B687C
:101C2C0003F00C03042B0CD08F4B5B6803F00C03FC
:101C3C00082B12D18C4B5B6803F48033B3F5803FD7
:101C4C000BD1894B1B6803F40033002B6CD07B68E1
:101C5C005B68002B68D1012346E27B685B68B3F5B7
:101C6C00803F06D1804B1B687F4A43F4803313605E
:101C7C002EE07B685B68002B0CD17B4B1B687A4A8F
:101C8C0023F480331360784B1B68774A23F480234A
:101C9C0013601DE07B685B68B3F5A02F0CD1724B11
:101CAC001B68714A43F4802313606F4B1B686E4AA8
:101CBC0043F4803313600BE06B4B1B686A4A23F4CC
:101CCC0080331360684B1B68674A23F480231360CE
:101CDC007B685B68002B13D0FFF7B6FC386108E01B
:101CEC00FFF7B2FC02463B69D31A642B01D90323DC
:101CFC00FAE15D4B1B6803F40033002BF0D014E0C9
:101D0C00FFF7A2FC386108E0FFF79EFC02463B6936
:101D1C00D31A642B01D90323E6E1534B1B6803F45C
:101D2C000033002BF0D100E000BF7B681B6803F090
:101D3C000203002B63D04C4B5B6803F00C03002BAD
:101D4C000BD0494B5B6803F00C03082B1CD1464BA2
:101D5C005B6803F48033002B16D1434B1B6803F0F4
:101D6C000203002B05D07B681B69012B01D00123DA
:101D7C00BAE13D4B1B6823F0F8027B685B69DB0022
:101D8C00394913430B603AE07B681B69002B20D068
:101D9C00364B01221A60FFF757FC386108E0FFF759
:101DAC0053FC02463B69D31A022B01D903239BE156
:101DBC002D4B1B6803F00203002BF0D02A4B1B6841
:101DCC0023F0F8027B685B69DB00274913430B6047
:101DDC0015E0264B00221A60FFF736FC386108E04C
:101DEC00FFF732FC02463B69D31A022B01D90323BD
:101DFC007AE11D4B1B6803F00203002BF0D17B68CA
:101E0C001B6803F00803002B3AD07B689B69002BFE
:101E1C0019D0174B01221A60FFF716FC386108E045
:101E2C00FFF712FC02463B69D31A022B01D903239C
:101E3C005AE10D4B5B6A03F00203002BF0D001203A
:101E4C0000F0A6FA1CE00A4B00221A60FFF7FCFB1C
:101E5C0038610FE0FFF7F8FB02463B69D31A022BFF
:101E6C0008D9032340E100BF0010024000004242A9
:101E7C00800442429E4B5B6A03F00203002BE9D1C3
:101E8C007B681B6803F00403002B00F0A680002382
:101E9C00FB75974BDB6903F08053002B0DD1944BF2
:101EAC00DB69934A43F08053D361914BDB6903F0B8
:101EBC008053BB60BB680123FB758E4B1B6803F41E
:101ECC008073002B18D18B4B1B688A4A43F48073A8
:101EDC001360FFF7B9FB386108E0FFF7B5FB02466A
:101EEC003B69D31A642B01D90323FDE0814B1B689A
:101EFC0003F48073002BF0D07B68DB68012B06D1D8
:101F0C007B4B1B6A7A4A43F0010313622DE07B681A
:101F1C00DB68002B0CD1764B1B6A754A23F001034E
:101F2C001362734B1B6A724A23F0040313621CE0A6
:101F3C007B68DB68052B0CD16D4B1B6A6C4A43F03C
:101F4C00040313626A4B1B6A694A43F00103136270
:101F5C000BE0674B1B6A664A23F001031362644B68
:101F6C001B6A634A23F0040313627B68DB68002B53
:101F7C0015D0FFF769FB38610AE0FFF765FB0246F5
:101F8C003B69D31A41F28832934201D90323ABE067
:101F9C00574B1B6A03F00203002BEED014E0FFF743
:101FAC0053FB38610AE0FFF74FFB02463B69D31A3B
:101FBC0041F28832934201D9032395E04C4B1B6AC2
:101FCC0003F00203002BEED1FB7D012B05D1484B16
:101FDC00DB69474A23F08053D3617B68DB69002BB4
:101FEC0000F08180424B5B6803F00C03082B61D03E
:101FFC007B68DB69022B46D13F4B00221A60FFF74E
:10200C0023FB386108E0FFF71FFB02463B69D31A3C
:10201C00022B01D9032367E0354B1B6803F00073D7
:10202C00002BF0D17B681B6AB3F5803F08D1304B95
:10203C005B6823F400327B689B682D4913434B602B
:10204C002B4B5B6823F474127B68196A7B685B6AA0
:10205C000B43274913434B60274B01221A60FFF7B0
:10206C00F3FA386108E0FFF7EFFA02463B69D31A3E
:10207C00022B01D9032337E01D4B1B6803F00073BF
:10208C00002BF0D02FE01C4B00221A60FFF7DCFA7B
:10209C00386108E0FFF7D8FA02463B69D31A022BE5
:1020AC0001D9032320E0124B1B6803F00073002BB3
:1020BC00F0D118E07B68DB69012B01D1012313E01F
:1020CC000B4B5B68FB60FB6803F480327B681B6A1C
:1020DC009A4206D1FB6803F470127B685B6A9A42E1
:1020EC0001D0012300E0002318461837BD4680BDFF
:1020FC0000100240007000406000424280B584B085
:10210C0000AF786039607B68002B01D10123D0E0EF
:10211C006A4B1B6803F007033A689A4210D9674B65
:10212C001B6823F0070265493B6813430B60634B44
:10213C001B6803F007033A689A4201D00123B8E008
:10214C007B681B6803F00203002B20D07B681B68A4
:10215C0003F00403002B05D0594B5B68584A43F439
:10216C00E06353607B681B6803F00803002B05D009
:10217C00534B5B68524A43F460535360504B5B685B
:10218C0023F0F0027B689B684D4913434B607B68DE
:10219C001B6803F00103002B40D07B685B68012BAC
:1021AC0007D1474B1B6803F40033002B15D10123D7
:1021BC007FE07B685B68022B07D1414B1B6803F007
:1021CC000073002B09D1012373E03D4B1B6803F016
:1021DC000203002B01D101236BE0394B5B6823F028
:1021EC0003027B685B68364913434B60FFF72CFA9C
:1021FC00F8600AE0FFF728FA0246FB68D31A41F2AE
:10220C008832934201D9032353E02D4B5B6803F0D2
:10221C000C027B685B689B009A42EBD1274B1B68D6
:10222C0003F007033A689A4210D2244B1B6823F040
:10223C00070222493B6813430B60204B1B6803F0D9
:10224C0007033A689A4201D0012332E07B681B688D
:10225C0003F00403002B08D0194B5B6823F4E062F5
:10226C007B68DB68164913434B607B681B6803F083
:10227C000803002B09D0124B5B6823F460527B6877
:10228C001B69DB000E4913434B6000F021F802463A
:10229C000B4B5B681B0903F00F030A49CB5C22FA5A
:1022AC0003F3094A1360094B1B681846FFF78AF9B8
:1022BC00002318461037BD4680BD00BF00200240E9
:1022CC0000100240202C00081C00002020000020E0
:1022DC0090B48AB000AF2A4B3C1D0FCB84E80F00A2
:1022EC0040F201233B800023FB610023BB610023F0
:1022FC007B6200237B6100233B62224B5B68FB61AA
:10230C00FB6903F00C03042B02D0082B03D02DE047
:10231C001D4B3B622DE0FB699B0C03F00F0307F197
:10232C002802134413F8243C7B61FB6903F48033CB
:10233C00002B13D0134B5B685B0C03F0010307F10C
:10234C002802134413F8283CBB617B690E4A02FB3C
:10235C0003F2BB69B2FBF3F37B6204E07B690B4ACB
:10236C0002FB03F37B627B6A3B6202E0064B3B623F
:10237C0000BF3B6A18462837BD4690BC704700BF6B
:10238C00102C00080010024000127A0000093D00D9
:10239C0080B485B000AF78600A4B1B680A4AA2FB78
:1023AC0003235B0A7A6802FB03F3FB6000BFFB6844
:1023BC005A1EFA60002BF9D100BF00BF1437BD467E
:1023CC0080BC70471C000020D34D621080B582B0D9
:1023DC0000AF78607B68002B01D1012341E07B6862
:1023EC0093F83D30DBB2002B06D17B68002283F8DA
:1023FC003C207868FFF74EF87B68022283F83D207A
:10240C007B681A687B6804331946104600F06AFA38
:10241C007B68012283F846207B68012283F83E20EA
:10242C007B68012283F83F207B68012283F84020DF
:10243C007B68012283F841207B68012283F84220CB
:10244C007B68012283F843207B68012283F84420B7
:10245C007B68012283F845207B68012283F83D20AC
:10246C00002318460837BD4680BD000080B485B0F7
:10247C0000AF78607B6893F83D30DBB2012B01D064
:10248C00012335E07B68022283F83D207B681B68C2
:10249C00DA687B681B6842F00102DA607B681B68B3
:1024AC00164A934209D07B681B68B3F1804F04D065
:1024BC007B681B68124A934211D17B681B689B682E
:1024CC0003F00703FB60FB68062B10D07B681B68CE
:1024DC001A687B681B6842F001021A6007E07B688F
:1024EC001B681A687B681B6842F001021A600023A3
:1024FC0018461437BD4680BC704700BF002C014005
:10250C000004004080B582B000AF78607B681B6827
:10251C001B6903F00203022B22D17B681B68DB686A
:10252C0003F00203022B1BD17B681B686FF00202C5
:10253C001A617B6801221A777B681B689B6903F020
:10254C000303002B03D0786800F0B1F905E078683C
:10255C0000F0A4F9786800F0B3F97B6800221A77D0
:10256C007B681B681B6903F00403042B22D17B6876
:10257C001B68DB6803F00403042B1BD17B681B680E
:10258C006FF004021A617B6802221A777B681B6861
:10259C009B6903F44073002B03D0786800F087F933
:1025AC0005E0786800F07AF9786800F089F97B68C2
:1025BC0000221A777B681B681B6903F00803082B41
:1025CC0022D17B681B68DB6803F00803082B1BD146
:1025DC007B681B686FF008021A617B6804221A770B
:1025EC007B681B68DB6903F00303002B03D078685E
:1025FC0000F05DF905E0786800F050F9786800F0BB
:10260C005FF97B6800221A777B681B681B6903F0F3
:10261C001003102B22D17B681B68DB6803F01003BE
:10262C00102B1BD17B681B686FF010021A617B6842
:10263C0008221A777B681B68DB6903F44073002B54
:10264C0003D0786800F033F905E0786800F026F9DB
:10265C00786800F035F97B6800221A777B681B6874
:10266C001B6903F00103012B0ED17B681B68DB682F
:10267C0003F00103012B07D17B681B686FF001028B
:10268C001A617868FEF7FCFD7B681B681B6903F018
:10269C008003802B0ED17B681B68DB6803F0800302
:1026AC00802B07D17B681B686FF080021A617868F9
:1026BC0000F067FA7B681B681B6903F04003402B32
:1026CC000ED17B681B68DB6803F04003402B07D1FD
:1026DC007B681B686FF040021A61786800F0F9F8AB
:1026EC007B681B681B6903F02003202B0ED17B68D1
:1026FC001B68DB6803F02003202B07D17B681B6869
:10270C006FF020021A61786800F032FA00BF0837C7
:10271C00BD4680BD80B584B000AF786039607B6801
:10272C0093F83C30012B01D10223B3E07B680122EA
:10273C0083F83C207B68022283F83D207B681B6871
:10274C009B68FB60FB6823F07703FB60FB6823F45A
:10275C007F43FB607B681B68FA689A603B681B6868
:10276C00B3F5005F3ED0B3F5005F00F28780B3F5A0
:10277C00805F00F08580B3F5805F7FD8702B1AD016
:10278C00702B7BD8602B50D0602B77D8502B3CD043
:10279C00502B73D8402B58D0402B6FD8302B64D093
:1027AC00302B6BD8202B60D0202B67D8002B5CD023
:1027BC00102B5AD062E07B6818683B6899683B68BC
:1027CC005A683B68DB6800F05CF97B681B689B68A7
:1027DC00FB60FB6843F07703FB607B681B68FA685F
:1027EC009A604EE07B6818683B6899683B685A6849
:1027FC003B68DB6800F045F97B681B689A687B686E
:10280C001B6842F480429A603BE07B6818683B6826
:10281C0059683B68DB681A4600F0BCF87B681B689B
:10282C005021184600F013F92BE07B6818683B68C0
:10283C0059683B68DB681A4600F0DAF87B681B685D
:10284C006021184600F003F91BE07B6818683B68B0
:10285C0059683B68DB681A4600F09CF87B681B687B
:10286C004021184600F0F3F80BE07B681A683B68CF
:10287C001B681946104600F0EAF802E000BF00E0C1
:10288C0000BF7B68012283F83D207B68002283F81F
:10289C003C20002318461037BD4680BD80B483B061
:1028AC0000AF786000BF0C37BD4680BC704780B469
:1028BC0083B000AF786000BF0C37BD4680BC70475A
:1028CC0080B483B000AF786000BF0C37BD4680BCCD
:1028DC00704780B483B000AF786000BF0C37BD4642
:1028EC0080BC704780B485B000AF786039607B687D
:1028FC001B68FB607B68254A934207D07B68B3F169
:10290C00804F03D07B68224A934208D1FB6823F0A6
:10291C007003FB603B685B68FA681343FB607B6881
:10292C001A4A934207D07B68B3F1804F03D07B687F
:10293C00174A934208D1FB6823F44073FB603B6851
:10294C00DB68FA681343FB60FB6823F080023B688A
:10295C005B691343FB607B68FA681A603B689A6892
:10296C007B68DA623B681A687B689A627B68074A04
:10297C00934203D13B681A697B681A637B68012216
:10298C005A6100BF1437BD4680BC7047002C014013
:10299C000004004080B487B000AFF860B9607A6082
:1029AC00FB681B6A7B61FB681B6A23F00102FB68F6
:1029BC001A62FB689B693B613B6923F0F0033B6146
:1029CC007B681B013A6913433B617B6923F00A0363
:1029DC007B617A69BB6813437B61FB683A699A61D6
:1029EC00FB687A691A6200BF1C37BD4680BC704711
:1029FC0080B487B000AFF860B9607A60FB681B6A7E
:102A0C0023F01002FB681A62FB689B697B61FB6810
:102A1C001B6A3B617B6923F470437B617B681B03FE
:102A2C007A6913437B613B6923F0A0033B61BB686C
:102A3C001B013A6913433B61FB687A699A61FB6835
:102A4C003A691A6200BF1C37BD4680BC704780B41F
:102A5C0085B000AF786039607B689B68FB60FB6871
:102A6C0023F07003FB603A68FB68134343F00703E1
:102A7C00FB607B68FA689A6000BF1437BD4680BC67
:102A8C00704780B487B000AFF860B9607A603B6083
:102A9C00FB689B687B617B6923F47F437B613B68AC
:102AAC001A027B681A43BB6813437A6913437B6130
:102ABC00FB687A699A6000BF1C37BD4680BC7047C2
:102ACC0080B485B000AF786039607B6893F83C3097
:102ADC00012B01D1022341E07B68012283F83C20C9
:102AEC007B68022283F83D207B681B685B68FB6077
:102AFC007B681B689B68BB60FB6823F07003FB6002
:102B0C003B681B68FA681343FB607B681B68FA68B8
:102B1C005A607B681B68144A934209D07B681B6817
:102B2C00B3F1804F04D07B681B68104A93420CD1E0
:102B3C00BB6823F08003BB603B685B68BA681343D7
:102B4C00BB607B681B68BA689A607B68012283F85B
:102B5C003D207B68002283F83C2000231846143764
:102B6C00BD4680BC704700BF002C014000040040F3
:102B7C0080B483B000AF786000BF0C37BD4680BC1A
:102B8C00704780B483B000AF786000BF0C37BD468F
:102B9C0080BC704770B500260C4D0D4C641BA41006
:102BAC00A64209D100F022F800260A4D0A4C641BFB
:102BBC00A410A64205D170BD55F8043B98470136C8
:102BCC00EEE755F8043B98470136F2E7302C000845
:102BDC00302C0008302C0008342C0008034602442A
:102BEC00934200D1704703F8011BF9E7F8B500BF19
:102BFC00F8BC08BC9E467047F8B500BFF8BC08BCD2
:042C0C009E46704729
:102C100002030405060708090A0B0C0D0E0F10101D
:102C2000000000000000000001020304060708097C
:042C30003101000866
:042C34000D01000886
:102C38000100000001000000010000000100000088
:102C48006400000000000000000000000024F40000
:082C5800100000000100000063
:040000050800155981
:00000001FF
