:020000040800F2
:1000000000280020051A0008951900089B1900080F
:10001000A1190008A7190008AD1900080000000088
:10002000000000000000000000000000B3190008FC
:10003000BF19000800000000CB190008D7190008FC
:100040004D1A00084D1A00084D1A00084D1A0008F4
:100050004D1A00084D1A00084D1A00084D1A0008E4
:100060004D1A00084D1A00084D1A00084D1A0008D4
:100070004D1A00084D1A00084D1A00084D1A0008C4
:100080004D1A00084D1A00084D1A00084D1A0008B4
:100090004D1A00084D1A00084D1A00084D1A0008A4
:1000A0004D1A00084D1A00084D1A00084D1A000894
:1000B000E51900084D1A0008000000004D1A00085C
:1000C0004D1A000800000000000000004D1A000852
:1000D000000000004D1A00084D1A00080000000042
:1000E0004D1A00084D1A00084D1A000800000000C3
:1000F0000000000000000000000000000000000000
:0C01000000000000000000005FF808F1A3
:10010C0010B5054C237833B9044B13B10448AFF345
:10011C0000800123237010BD280000200000000087
:10012C00A430000808B5034B1BB103490348AFF3D7
:10013C00008008BD000000002C000020A430000846
:10014C0080B582B000AF78600B467B807B88012243
:10015C001946786801F077FF00BF0837BD4680BDAF
:10016C0080B582B000AF78600B467B807B88002224
:10017C001946786801F067FF00BF0837BD4680BD9F
:10018C0080B582B000AF78600B467B807B881946C7
:10019C00786801F070FF00BF0837BD4680BD0000D5
:1001AC0080B500AF08210D48FFF7DAFF10210B488E
:1001BC00FFF7D6FF20210948FFF7D2FF402107485F
:1001CC00FFF7CEFF80210548FFF7CAFF4FF480717F
:1001DC000248FFF7C5FF00BF80BD00BF000801400B
:1001EC0080B500AF01224FF48051324801F02BFF53
:1001FC0001224FF400512F4801F025FF01224FF44A
:10020C0080412C4801F01FFF01224FF40041294886
:10021C0001F019FF01220121274801F014FF0122EE
:10022C000221254801F00FFF01220421224801F090
:10023C000AFF01220821204801F005FF01221021AC
:10024C001D4801F000FF012220211B4801F0FBFE9C
:10025C0001224021184801F0F6FE01224FF40071F2
:10026C00154801F0F0FE01224FF48061124801F0B4
:10027C00EAFE01224FF400610F4801F0E4FE012276
:10028C004FF480510C4801F0DEFE01224FF4005176
:10029C00094801F0D8FE01224FF48041064801F0D4
:1002AC00D2FE01224FF40041034801F0CCFE00BF06
:1002BC0080BD00BF00080140000C014090B583B028
:1002CC0000AF0446084611461A462346FB800346F7
:1002DC00BB800B467B8013463B803B6C092B00F2AA
:1002EC00C58101A252F823F01D0300087303000816
:1002FC00C90300081F04000875040008CB0400089B
:10030C002105000877050008CD0500082306000824
:10031C00FB8800221946786A01F095FEBB88002202
:10032C001946B86A01F08FFE7B8800221946F86ADC
:10033C0001F089FE3B8800221946386B01F083FEE0
:10034C003B8B00221946786B01F07DFEBB8B0022A3
:10035C001946B86B01F077FE3B8C01221946F86BFD
:10036C0001F071FEADE1FB8801221946786A01F0BB
:10037C006AFEBB8800221946B86A01F064FE7B88CD
:10038C0000221946F86A01F05EFE3B8801221946EC
:10039C00386B01F058FE3B8B01221946786B01F04B
:1003AC0052FEBB8B01221946B86B01F04CFE3B8C04
:1003BC0001221946F86B01F046FE82E1FB8800220F
:1003CC001946786A01F03FFEBB8800221946B86ACC
:1003DC0001F039FE7B8801221946F86A01F033FEE0
:1003EC003B8800221946386B01F02DFE3B8B002216
:1003FC001946786B01F027FEBB8B01221946B86BAE
:10040C0001F021FE3B8C00221946F86B01F01BFE1B
:10041C0057E1FB8800221946786A01F014FEBB886C
:10042C0000221946B86A01F00EFE7B88002219469C
:10043C00F86A01F008FE3B8800221946386B01F07F
:10044C0002FE3B8B01221946786B01F0FCFDBB8B45
:10045C0001221946B86B01F0F6FD3B8C00221946BF
:10046C00F86B01F0F0FD2CE1FB8801221946786A4B
:10047C0001F0E9FDBB8800221946B86A01F0E3FDE2
:10048C007B8800221946F86A01F0DDFD3B880122C9
:10049C001946386B01F0D7FD3B8B01221946786B5E
:1004AC0001F0D1FDBB8B00221946B86B01F0CBFDDE
:1004BC003B8C00221946F86B01F0C5FD01E1FB886D
:1004CC0000221946786A01F0BEFDBB88012219464C
:1004DC00B86A01F0B8FD7B8800221946F86A01F071
:1004EC00B2FD3B8800221946386B01F0ACFD3B8B0A
:1004FC0001221946786B01F0A6FDBB8B0022194630
:10050C00B86B01F0A0FD3B8C00221946F86B01F092
:10051C009AFDD6E0FB8800221946786A01F093FD1B
:10052C00BB8801221946B86A01F08DFD7B88002238
:10053C001946F86A01F087FD3B8800221946386B92
:10054C0001F081FD3B8B00221946786B01F07BFD9D
:10055C00BB8B00221946B86B01F075FD3B8C002259
:10056C001946F86B01F06FFDABE0FB8800221946D1
:10057C00786A01F068FDBB8800221946B86A01F060
:10058C0062FD7B8800221946F86A01F05CFD3B880D
:10059C0001221946386B01F056FD3B8B012219469E
:1005AC00786B01F050FDBB8B01221946B86B01F042
:1005BC004AFD3B8C01221946F86B01F044FD80E0AA
:1005CC00FB8800221946786A01F03DFDBB880022A9
:1005DC001946B86A01F037FD7B8800221946F86A83
:1005EC0001F031FD3B8800221946386B01F02BFDE0
:1005FC003B8B00221946786B01F025FDBB8B00224A
:10060C001946B86B01F01FFD3B8C00221946F86BA4
:10061C0001F019FD55E0FB8800221946786A01F0BB
:10062C0012FDBB8800221946B86A01F00CFD7B88CC
:10063C0000221946F86A01F006FD3B880022194693
:10064C00386B01F000FD3B8B01221946786B01F0F1
:10065C00FAFCBB8B00221946B86B01F0F4FC3B8C06
:10066C0000221946F86B01F0EEFC2AE0FB8801220F
:10067C001946786A01F0E7FCBB8801221946B86A72
:10068C0001F0E1FC7B8801221946F86A01F0DBFCE1
:10069C003B8801221946386B01F0D5FC3B8B0122BB
:1006AC001946786B01F0CFFCBB8B01221946B86B55
:1006BC0001F0C9FC3B8C01221946F86B01F0C3FC1C
:1006CC0000BF00BF0C37BD4690BD00BF80B58CB0DD
:1006DC000CAF354B1B68012B62D100224FF48051BB
:1006EC00324801F0B0FC00224FF400512F4801F0C9
:1006FC00AAFC00224FF480412C4801F0A4FC0022FB
:10070C004FF40041294801F09EFC294B1B685A1EEE
:10071C0027490A600A93274B0993264B0893254BCC
:10072C000793244B0693234B0593224B0493214BA5
:10073C000393402302932023019310230093082357
:10074C00042202210120FFF7B9FD1B4B1B685A1E26
:10075C0019490A600A93174B0993164B0893154BCA
:10076C000793144B0693134B0593124B0493114BA5
:10077C0003934FF4004302934FF4804301934FF4DF
:10078C00005300934FF480534FF400624FF4806198
:10079C004FF40070FFF792FD4FF47A7000F0E0FF19
:1007AC0000BFBD4680BD00BF900000200008014086
:1007BC0068000020000C01406C00002080B500AFE8
:1007CC009D4B1B68032B00F2328101A252F823F0DF
:1007DC00ED07000867080008030900089F090008D6
:1007EC00954B01221A60954B1B68954A1360322079
:1007FC0000F07EFF322000F0B3FF322000F0CCFF7F
:10080C00002000F063FD0346002B00F012818A4BA0
:10081C004FF0FF321A608B4B0C221A60884B4FF052
:10082C00FF321A60854B1B68874A1360874B1B6825
:10083C00874A1360874B1B68874A1360FFF7B0FC2D
:10084C00FFF7CEFC00F0C4FF00F0D2FF00F0E0FF99
:10085C004FF4FA7000F0A0FFEBE0804B1B68012B0B
:10086C001BD1754B02221A6008217D48FFF768FCEA
:10087C0010217B48FFF774FC20217948FFF770FCAE
:10088C006E4B1B686E4A13606C4B1B684FF47A728C
:10089C0002FB03F3184600F02BFF002000F016FDBE
:1008AC000346002B24D0644B4FF0FF321A60654B8B
:1008BC000C221A60624B4FF0FF321A605F4B1B68C0
:1008CC00614A1360614B1B68614A1360614B1B6882
:1008DC00614A1360FFF764FCFFF782FC00F078FFBD
:1008EC0000F086FF00F094FF4FF4FA7000F054FF14
:1008FC00FFF7ECFE9EE0594B1B68012B1BD14E4BB6
:10090C0003221A6020215648FFF71AFC082154488C
:10091C00FFF726FC10215248FFF722FC4D4B1B68B9
:10092C00474A13604B4B1B684FF47A7202FB03F37C
:10093C00184600F0DDFE002000F0C8FC0346002B3A
:10094C0024D03D4B4FF0FF321A603E4B0C221A6004
:10095C003B4B4FF0FF321A60384B1B683A4A13601E
:10096C003A4B1B683A4A13603A4B1B683A4A13607D
:10097C00FFF716FCFFF734FC00F02AFF00F038FFFD
:10098C0000F046FF4FF4FA7000F006FFFFF79EFEF2
:10099C0050E0324B1B68012B1BD1274B01221A60F4
:1009AC0010212F48FFF7CCFB08212D48FFF7D8FB6F
:1009BC0020212B48FFF7D4FB244B1B68204A1360E3
:1009CC00224B1B684FF47A7202FB03F3184600F0BB
:1009DC008FFE002000F07AFC0346002B24D0164B2F
:1009EC004FF0FF321A60174B0C221A60144B4FF069
:1009FC00FF321A60114B1B68134A1360134B1B68B0
:100A0C00134A1360134B1B68134A1360FFF7C8FBA0
:100A1C00FFF7E6FB00F0DCFE00F0EAFE00F0F8FE6B
:100A2C004FF4FA7000F0B8FEFFF750FE02E000BF82
:100A3C0000E000BF00BF80BD44000020500000203B
:100A4C00680000204C0000205C00002058000020B2
:100A5C00640000205400002060000020880000206A
:100A6C000008014080B500AF964B1B68032B00F2C9
:100A7C00238101A252F823F0950A0008EB0A000822
:100A8C00890B0008270C00088E4B02221A608E4B33
:100A9C001B688E4A1360322000F046FE002000F0E6
:100AAC0015FC0346002B00F00981864B4FF0FF32FA
:100ABC001A60874B0C221A60844B4FF0FF321A607D
:100ACC00FFF76EFBFFF78CFB00F082FE00F090FE50
:100ADC0000F09EFE4FF4FA7000F05EFEEEE07D4BEF
:100AEC001B68012B1CD1774B02221A6040217A48DB
:100AFC00FFF726FB80217848FFF732FB4FF480711B
:100B0C007548FFF72DFB754B1B68704A1360734BD0
:100B1C001B684FF47A7202FB03F3184600F004FED4
:100B2C00002000F0D3FB0346002B24D0654B4FF084
:100B3C00FF321A60664B0C221A60644B4FF0FF3286
:100B4C001A60664B1B68664A1360664B1B68664AE4
:100B5C0013605D4B1B68654A1360FFF721FBFFF7C1
:100B6C003FFB00F035FE00F043FE00F051FE4FF469
:100B7C00FA7000F011FEFFF7A9FDA0E0554B1B68C1
:100B8C00012B1CD14F4B03221A604FF48071524839
:100B9C00FFF7D6FA40215048FFF7E2FA80214E4881
:100BAC00FFF7DEFA484B1B68484A1360464B1B683C
:100BBC004FF47A7202FB03F3184600F0B5FD0020E7
:100BCC0000F084FB0346002B24D03E4B4FF0FF3249
:100BDC001A603F4B0C221A603C4B4FF0FF321A60EC
:100BEC003E4B1B683E4A13603E4B1B683E4A1360EB
:100BFC00354B1B683D4A1360FFF7D2FAFFF7F0FA4A
:100C0C0000F0E6FD00F0F4FD00F002FE4FF4FA7087
:100C1C0000F0C2FDFFF75AFD51E02E4B1B68012B73
:100C2C001CD1284B01221A6080212B48FFF788FA2F
:100C3C0040212948FFF794FA4FF480712648FFF7BA
:100C4C008FFA284B1B68214A1360264B1B684FF404
:100C5C007A7202FB03F3184600F066FD002000F0E8
:100C6C0035FB0346002B24D0164B4FF0FF321A6095
:100C7C00174B0C221A60154B4FF0FF321A60174BB2
:100C8C001B68174A1360174B1B68174A13600E4BEF
:100C9C001B68164A1360FFF783FAFFF7A1FA00F0FE
:100CAC0097FD00F0A5FD00F0B3FD4FF4FA7000F0D5
:100CBC0073FDFFF70BFD02E000BF00E000BF00BFBB
:100CCC0080BD00BF48000020540000206C000020B4
:100CDC004C0000208C000020000801405000002037
:100CEC005C00002058000020640000206000002000
:100CFC0080B58CB00CAF6A4B1B680E2B00F0DE80FD
:100D0C000E2B00F375820C2B03D00D2B00F0AC8155
:100D1C006EE200224FF48051624801F094F90123F5
:100D2C000A93614B0993604B08935F4B07935E4B9F
:100D3C0006935D4B05935C4B04935B4B03934023F1
:100D4C0002932023019310230093082304220221F1
:100D5C000120FFF7B3FA554B1B68012B0BD108216F
:100D6C005048FFF70DFA40214E48FFF709FA4FF4AF
:100D7C00FA7000F011FD002000F0A8FA0346002BD9
:100D8C0010D0474B0E221A60FFF70AFA1021454883
:100D9C00FFF7D6F980214348FFF7D2F94FF4FA70E8
:100DAC0000F0FAFC012000F091FA0346002B6BD006
:100DBC003F4B1B6801333E4A13603D4B1B68632B52
:100DCC0002DD3B4B00221A60FFF70AFA00224FF4B7
:100DDC008051344801F037F900224FF4005131486A
:100DEC0001F031F9324B1B68324A82FB031292102C
:100DFC00DB17D31A0A932C4B09932B4B08932A4BD2
:100E0C000793294B0693284B0593274B0493264BAA
:100E1C000393402302932023019310230093082370
:100E2C00042202210120FFF749FA214B1968214BBA
:100E3C0083FB01239A10CB17D21A13469B00134441
:100E4C005B00CA1A0A92184B0993174B0893164B5E
:100E5C000793154B0693144B0593134B0493124BAA
:100E6C0003934FF4004302934FF4804301934FF4E8
:100E7C00005300934FF480534FF400624FF48061A1
:100E8C004FF40070FFF71AFA022000F01FFA034625
:100E9C00002B00F0AF81064B1B68074A1360A9E1D9
:100EAC004C00002000080140000C01409400002080
:100EBC005C000020676666665000002000224FF43C
:100ECC008051624801F0BFF802230A93604B0993EA
:100EDC005F4B08935E4B07935D4B06935C4B0593FE
:100EEC005B4B04935A4B03934023029320230193AF
:100EFC00102300930823042202210120FFF7DEF9BE
:100F0C00544B1B68012B0BD110215048FFF738F9BB
:100F1C0080214E48FFF734F94FF4FA7000F03CFC96
:100F2C00002000F0D3F90346002B11D04A4B0D22C0
:100F3C001A60FFF735F920214448FFF701F94FF407
:100F4C0080714248FFF7FCF84FF4FA7000F024FC73
:100F5C00012000F0BBF90346002B6BD03F4B1B6804
:100F6C0001333E4A13603D4B1B68632B02DD3B4B48
:100F7C0000221A60FFF734F900224FF480513348F5
:100F8C0001F061F800224FF40051304801F05BF899
:100F9C00324B1B68324A82FB03129210DB17D31AB6
:100FAC000A932B4B09932A4B0893294B0793284BF5
:100FBC000693274B0593264B0493254B0393402311
:100FCC00029320230193102300930823042202216F
:100FDC000120FFF773F9214B1968214B83FB012387
:100FEC009A10CB17D21A13469B0013445B00CA1AF3
:100FFC000A92174B0993164B0893154B0793144BF6
:10100C000693134B0593124B0493114B03934FF41C
:10101C00004302934FF4804301934FF40053009329
:10102C004FF480534FF400624FF480614FF4007022
:10103C00FFF744F9022000F049F90346002B00F0B9
:10104C00DB80064B1B68074A1360D5E000080140A3
:10105C00000C0140940000204C0000206400002093
:10106C00676666665800002000224FF48051654880
:10107C0000F0E9FF03230A93634B0993624B089337
:10108C00614B0793604B06935F4B05935E4B049348
:10109C005D4B039340230293202301931023009371
:1010AC000823042202210120FFF708F9574B1B6883
:1010BC00012B0CD120215348FFF762F84FF48071BB
:1010CC005048FFF75DF84FF4FA7000F065FB002014
:1010DC0000F0FCF80346002B0DD04D4B00221A609B
:1010EC004C4B00221A604C4B4FF0FF321A60FFF74A
:1010FC0057F8FFF775F8012000F0E8F80346002BCD
:10110C006BD0464B1B680133444A1360434B1B683E
:10111C00632B02DD414B00221A60FFF761F80022BD
:10112C004FF48051374800F08EFF00224FF40051ED
:10113C00344800F088FF394B1B68394A82FB031294
:10114C009210DB17D31A0A932F4B09932E4B08934B
:10115C002D4B07932C4B06932B4B05932A4B049347
:10116C00294B0393402302932023019310230093D4
:10117C000823042202210120FFF7A0F8274B19684D
:10118C00274B83FB01239A10CB17D21A13469B00D3
:10119C0013445B00CA1A0A921B4B09931A4B08930F
:1011AC00194B0793184B0693174B0593164B049347
:1011BC00154B03934FF4004302934FF48043019378
:1011CC004FF4005300934FF480534FF400624FF4EC
:1011DC0080614FF40070FFF771F8022000F076F890
:1011EC000346002B0AD00D4B1B680E4A136005E01A
:1011FC0000BF04E000BF02E000BF00E000BF00BF82
:10120C00BD4680BD00080140000C01409400002048
:10121C0044000020480000204C000020600000200A
:10122C00676666665400002080B582B000AF7860B7
:10123C007B68032B1FD801A252F823F05912000827
:10124C006712000875120008871200084FF400712D
:10125C000D4800F0E1FE034611E04FF480610A48AE
:10126C0000F0DAFE03460AE04FF40061064800F095
:10127C00D3FE034603E0012301E000BF012318461F
:10128C000837BD4680BD00BF0008014080B483B064
:10129C0000AF7860044A7B68012142F8231000BF3C
:1012AC000C37BD4680BC70477000002080B483B002
:1012BC0000AF7860044A7B68012142F8231000BF1C
:1012CC000C37BD4680BC70477C00002080B483B0D6
:1012DC0000AF78607B68022B02DD4FF0FF330DE02E
:1012EC00094A7B6852F82330012B06D1064A7B68E9
:1012FC00002142F82310012300E0002318460C378C
:10130C00BD4680BC704700BF7000002080B483B025
:10131C0000AF78607B68022B02DD4FF0FF330DE0ED
:10132C00094A7B6852F82330012B06D1064A7B68A8
:10133C00002142F82310012300E0002318460C374B
:10134C00BD4680BC704700BF7C00002080B582B0D9
:10135C0000AF00237B6077E03F4A7B681344197829
:10136C003E4A7B6813440A461A703D4A7B68134414
:10137C001978394A7B6813440A461A707868FFF763
:10138C0053FF03461946364A7B6813440A461A70C3
:10139C00314A7B6813441A7831497B680B441B78BB
:1013AC009A424ED12C4A7B6813441A782B497B689D
:1013BC000B441B789A4244D1284A7B6813441A7810
:1013CC0028497B680B441B789A421AD0234A7B68C5
:1013DC0013441978234A7B6813440A461A707868B8
:1013EC00FFF794FF1F4A7B6813441B78002B28D10E
:1013FC001D4A7B68642142F823107868FFF746FF8A
:10140C001FE0194A7B6852F823305A1E16497B6834
:10141C0041F82320144A7B6852F82330002B10DC4F
:10142C000E4A7B6813441B78002B05D17868FFF7B4
:10143C004DFF7868FFF73AFF0B4A7B68642142F84E
:10144C0023107B6801337B607B68022B84DD00BF3B
:10145C0000BF0837BD4680BD0400002008000020F6
:10146C00000000200C0000201000002080B500AF10
:10147C0000F0E8FA00F03EF800F0C4F800F076F85E
:10148C00134801F049FA134B05221A60124B032240
:10149C001A60124B02221A60114B00221A60114B77
:1014AC0000221A60104B4FF0FF321A600F4B0022D3
:1014BC001A600F4B00221A60FEF772FEFEF790FEC8
:1014CC00FFF77CF9FFF7CEFAFFF712FCF8E700BF45
:1014DC00A8000020500000205400002058000020DC
:1014EC0044000020480000204C0000206800002030
:1014FC006C00002080B590B000AF07F118032822D3
:10150C000021184601F0C0FD3B1D00221A605A60F4
:10151C009A60DA601A610223BB610123BB6210235B
:10152C00FB6200237B6307F11803184600F0BCFD37
:10153C000346002B01D000F0D5F80F237B6000236D
:10154C00BB600023FB6000233B6100237B613B1DE0
:10155C000021184601F028F80346002B01D000F0BA
:10156C00C1F800BF4037BD4680BD000080B586B0D5
:10157C0000AF07F1080300221A605A609A60DA6023
:10158C003B4600221A605A601D4B4FF080421A6095
:10159C001B4B41F63F725A60194B00229A60184B54
:1015AC000922DA60164B00221A61154B00229A614F
:1015BC00134801F061F90346002B01D000F092F8BA
:1015CC004FF48053BB6007F1080319460C4801F037
:1015DC00F7FA0346002B01D000F084F800233B609F
:1015EC0000237B603B461946054801F0BFFC0346CF
:1015FC00002B01D000F076F800BF1837BD4680BD37
:10160C00A800002080B586B000AF07F108030022C7
:10161C001A605A609A60DA60294B9B69284A43F039
:10162C0004039361264B9B6903F004037B607B6886
:10163C00234B9B69224A43F008039361204B9B691F
:10164C0003F008033B603B6800224FF2F8111D4881
:10165C0000F0F9FC00224FF67F611B4800F0F3FC10
:10166C004FF2F813BB600123FB6000233B610223A4
:10167C007B6107F108031946124800F053FB4FF643
:10168C007F63BB600123FB6000233B6102237B6112
:10169C0007F1080319460C4800F044FB4FF4606353
:1016AC00BB600023FB6001233B6107F10803194673
:1016BC00044800F037FB00BF1837BD4680BD00BFA3
:1016CC000010024000080140000C014080B582B0BF
:1016DC0000AF786000F0ACF8FFF738FE00BF0837B9
:1016EC00BD4680BD80B400AF72B600BFFEE70000FF
:1016FC0080B483B000AF78607B68084A82FB031229
:10170C009210DB17D31A064A1360064B00221A609C
:10171C0000BF0C37BD4680BC704700BF676666666D
:10172C00980000208800002080B483B000AF78605F
:10173C007B68084A82FB03129210DB17D31A064A05
:10174C001360064B00221A6000BF0C37BD4680BCEC
:10175C00704700BF676666669C0000208C00002006
:10176C0080B483B000AF78607B68084A82FB0312B8
:10177C009210DB17D31A064A1360064B00221A602C
:10178C0000BF0C37BD4680BC704700BF67666666FD
:10179C00A00000209000002080B483B000AF7860DF
:1017AC007B68084A82FB03129210DB17D31A064A95
:1017BC001360064B00221A6000BF0C37BD4680BC7C
:1017CC00704700BF67666666A40000209400002086
:1017DC0080B400AF044B00221A60044B00221A6044
:1017EC0000BFBD4680BC70479800002088000020D8
:1017FC0080B400AF044B00221A60044B00221A6024
:10180C0000BFBD4680BC70479C0000208C000020AF
:10181C0080B400AF044B00221A60044B00221A6003
:10182C0000BFBD4680BC7047A00000209000002087
:10183C0080B400AF214B1B68002B0BDD1F4B1B68CA
:10184C00013B1E4A13601D4B1B68002B02DC1C4B1A
:10185C0001221A601B4B1B68002B0BDD194B1B68FC
:10186C00013B184A1360174B1B68002B02DC164B0C
:10187C0001221A60154B1B68002B0BDD134B1B68E8
:10188C00013B124A1360114B1B68002B02DC104BFE
:10189C0001221A600F4B1B68002B0BDD0D4B1B68D4
:1018AC00013B0C4A13600B4B1B68002B02DC0A4BF0
:1018BC0001221A6000BFBD4680BC70479800002012
:1018CC00880000209C0000208C000020A00000203C
:1018DC0090000020A40000209400002080B485B06B
:1018EC0000AF154B9B69144A43F001039361124BF3
:1018FC009B6903F00103BB60BB680F4BDB690E4AAD
:10190C0043F08053D3610C4BDB6903F080537B6055
:10191C007B680A4B5B68FB60FB6823F0E063FB6051
:10192C00FB6843F08063FB60044AFB68536000BFB4
:10193C001437BD4680BC70470010024000000140C7
:10194C0080B584B000AF78607B681B68B3F1804FC2
:10195C0013D10C4BDB690B4A43F00103D361094BE8
:10196C00DB6903F00103FB60FB68002200211C20F3
:10197C0000F0A1F91C2000F0BAF900BF1037BD46E9
:10198C0080BD00BF0010024080B400AFFEE780B401
:10199C0000AFFEE780B400AFFEE780B400AFFEE717
:1019AC0080B400AFFEE780B400AF00BFBD4680BC82
:1019BC00704780B400AF00BFBD4680BC704780B498
:1019CC0000AF00BFBD4680BC704780B500AF00F0D3
:1019DC007FF800BF80BD000080B500AF024800F06A
:1019EC00E7FF00BF80BD00BFA800002080B400AF9F
:1019FC0000BFBD4680BC70470C480D490D4A002302
:101A0C0002E0D458C4500433C4188C42F9D30A4AA7
:101A1C000A4C002301E013600432A242FBD3FFF70F
:101A2C00E5FF01F00DFBFFF721FD704700000020E2
:101A3C0028000020E430000828000020F4000020DA
:101A4C00FEE7000080B500AF084B1B68074A43F067
:101A5C0010031360032000F023F90F2000F008F8A6
:101A6C00FFF73CFF0023184680BD00BF002002405A
:101A7C0080B582B000AF7860124B1A68124B1B789D
:101A8C0019464FF47A73B3FBF1F3B2FBF3F3184638
:101A9C0000F03BF90346002B01D001230EE07B68DC
:101AAC000F2B0AD8002279684FF0FF3000F003F9B1
:101ABC00064A7B681360002300E0012318460837B0
:101ACC00BD4680BD1C00002024000020200000200A
:101ADC0080B400AF054B1B781A46054B1B681344AA
:101AEC00034A136000BFBD4680BC70472400002031
:101AFC00F000002080B400AF024B1B681846BD46B6
:101B0C0080BC7047F000002080B485B000AF7860D6
:101B1C007B6803F00703FB600C4BDB68BB60BA68A7
:101B2C004FF6FF031340BB60FB681A02BB681343FC
:101B3C0043F0BF6343F40033BB60044ABB68D3601B
:101B4C0000BF1437BD4680BC704700BF00ED00E0FD
:101B5C0080B400AF044BDB681B0A03F00703184684
:101B6C00BD4680BC704700BF00ED00E080B483B080
:101B7C0000AF0346FB7197F90730002B0BDBFB79A9
:101B8C0003F01F02064997F907305B09012000FAA0
:101B9C0002F241F8232000BF0C37BD4680BC7047D1
:101BAC0000E100E080B483B000AF03463960FB7104
:101BBC0097F90730002B0ADB3B68DAB20C4997F92E
:101BCC0007301201D2B20B4483F800230AE03B68C1
:101BDC00DAB20849FB7903F00F03043B1201D2B2CD
:101BEC000B441A7600BF0C37BD4680BC704700BF53
:101BFC0000E100E000ED00E080B489B000AFF860D7
:101C0C00B9607A60FB6803F00703FB61FB69C3F101
:101C1C000703042B28BF0423BB61FB690433062B89
:101C2C0002D9FB69033B00E000237B614FF0FF32DC
:101C3C00BB6902FA03F3DA43BB681A407B699A402A
:101C4C004FF0FF317B6901FA03F3D9437B680B40FA
:101C5C00134318462437BD4680BC704780B582B00C
:101C6C0000AF78607B68013BB3F1807F01D3012327
:101C7C000FE00A4A7B68013B53600F214FF0FF30A5
:101C8C00FFF790FF054B00229A60044B07221A6065
:101C9C00002318460837BD4680BD00BF10E000E0A9
:101CAC0080B582B000AF78607868FFF72DFF00BF79
:101CBC000837BD4680BD80B586B000AF0346B9601D
:101CCC007A60FB7300237B61FFF742FF78617A68CF
:101CDC00B9687869FFF790FF024697F90F30114603
:101CEC001846FFF75FFF00BF1837BD4680BD80B5B3
:101CFC0082B000AF0346FB7197F907301846FFF727
:101D0C0035FF00BF0837BD4680BD80B582B000AF3F
:101D1C0078607868FFF7A2FF034618460837BD467F
:101D2C0080BD000080B48BB000AF786039600023B8
:101D3C007B6200233B6248E101227B6A02FA03F3D7
:101D4C00FB613B681B68FA691340BB61BA69FB69AC
:101D5C009A4240F037813B685B68A34A93425ED05D
:101D6C00A14A934275D8A14A934258D09F4A9342B4
:101D7C006FD89F4A934252D09D4A934269D89D4A4C
:101D8C0093424CD09B4A934263D89B4A934246D091
:101D9C00994A93425DD8122B2AD8122B59D801A2FA
:101DAC0052F823F02B1E0008051E0008171E000811
:101DBC00591E00085F1E00085F1E00085F1E000809
:101DCC005F1E00085F1E00085F1E00085F1E0008F3
:101DDC005F1E00085F1E00085F1E00085F1E0008E3
:101DEC005F1E00085F1E00080D1E0008211E000863
:101DFC00824A934213D02CE03B68DB683B6229E0BB
:101E0C003B68DB6804333B6224E03B68DB680833E7
:101E1C003B621FE03B68DB680C333B621AE03B68BB
:101E2C009B68002B02D104233B6213E03B689B6848
:101E3C00012B05D108233B627B68FA691A6109E022
:101E4C0008233B627B68FA695A6103E000233B621A
:101E5C0000E000BFBB69FF2B01D87B6801E07B6809
:101E6C0004337B61BB69FF2B02D87B6A9B0002E0C9
:101E7C007B6A083B9B003B617B691A680F213B69BD
:101E8C0001FA03F3DB431A40396A3B6901FA03F3A5
:101E9C001A437B691A603B685B6803F08053002B24
:101EAC0000F09080564B9B69554A43F001039361B7
:101EBC00534B9B6903F00103BB60BB68514A7B6ABF
:101ECC009B08023352F82330FB607B6A03F0030358
:101EDC009B000F2202FA03F3DB43FA681340FB600A
:101EEC007B68494A93420DD07B68484A934207D09D
:101EFC007B68474A934201D1022304E0032302E0AA
:101F0C00012300E000237A6A02F00302920093405E
:101F1C00FA681343FB603B497B6A9B080233FA68FF
:101F2C0041F823203B685B6803F48033002B06D018
:101F3C00384B1A683749BB6913430B6006E0354BC5
:101F4C001A68BB69DB43334913400B603B685B6821
:101F5C0003F40033002B06D02E4B5A682D49BB6975
:101F6C0013434B6006E02B4B5A68BB69DB43294992
:101F7C0013404B603B685B6803F48013002B06D066
:101F8C00244B9A682349BB6913438B6006E0214BB1
:101F9C009A68BB69DB431F4913408B603B685B68E5
:101FAC0003F40013002B06D01A4BDA681949BB69ED
:101FBC001343CB6006E0174BDA68BB69DB4315496A
:101FCC001340CB607B6A01337B623B681A687B6A87
:101FDC0022FA03F3002B7FF4AFAE00BF00BF2C3707
:101FEC00BD4680BC704700BF0000321000003110AD
:101FFC00000022100000211000001210000011102F
:10200C00001002400000014000080140000C01409B
:10201C00001001400004014080B485B000AF78602E
:10202C000B467B807B689A687B881340002B02D020
:10203C000123FB7301E00023FB73FB7B1846143771
:10204C00BD4680BC704780B483B000AF78600B464F
:10205C007B8013467B707B78002B03D07A887B685F
:10206C001A6103E07B881A047B681A6100BF0C3785
:10207C00BD4680BC704780B485B000AF78600B461D
:10208C007B807B68DB68FB607A88FB6813401A04F2
:10209C00FB68D9437B880B401A437B681A6100BFED
:1020AC001437BD4680BC704780B586B000AF7860F1
:1020BC007B68002B01D101236CE27B681B6803F069
:1020CC000103002B00F08780924B5B6803F00C033C
:1020DC00042B0CD08F4B5B6803F00C03082B12D134
:1020EC008C4B5B6803F48033B3F5803F0BD1894B89
:1020FC001B6803F40033002B6CD07B685B68002BEF
:10210C0068D1012346E27B685B68B3F5803F06D15A
:10211C00804B1B687F4A43F4803313602EE07B684E
:10212C005B68002B0CD17B4B1B687A4A23F4803301
:10213C001360784B1B68774A23F4802313601DE0EF
:10214C007B685B68B3F5A02F0CD1724B1B68714A8E
:10215C0043F4802313606F4B1B686E4A43F4803347
:10216C0013600BE06B4B1B686A4A23F480331360DB
:10217C00684B1B68674A23F4802313607B685B6899
:10218C00002B13D0FFF7B6FC386108E0FFF7B2FC68
:10219C0002463B69D31A642B01D90323FAE15D4B48
:1021AC001B6803F40033002BF0D014E0FFF7A2FC03
:1021BC00386108E0FFF79EFC02463B69D31A642B9A
:1021CC0001D90323E6E1534B1B6803F40033002BC6
:1021DC00F0D100E000BF7B681B6803F00203002B0A
:1021EC0063D04C4B5B6803F00C03002B0BD0494BBA
:1021FC005B6803F00C03082B1CD1464B5B6803F4A3
:10220C008033002B16D1434B1B6803F00203002BC9
:10221C0005D07B681B69012B01D00123BAE13D4B32
:10222C001B6823F0F8027B685B69DB0039491343B8
:10223C000B603AE07B681B69002B20D0364B0122E7
:10224C001A60FFF757FC386108E0FFF753FC0246B1
:10225C003B69D31A022B01D903239BE12D4B1B683D
:10226C0003F00203002BF0D02A4B1B6823F0F8027A
:10227C007B685B69DB00274913430B6015E0264B39
:10228C0000221A60FFF736FC386108E0FFF732FCD9
:10229C0002463B69D31A022B01D903237AE11D4B69
:1022AC001B6803F00203002BF0D17B681B6803F062
:1022BC000803002B3AD07B689B69002B19D0174B75
:1022CC0001221A60FFF716FC386108E0FFF712FCD8
:1022DC0002463B69D31A022B01D903235AE10D4B59
:1022EC005B6A03F00203002BF0D0012000F0A6FA89
:1022FC001CE00A4B00221A60FFF7FCFB38610FE070
:10230C00FFF7F8FB02463B69D31A022B08D90323CB
:10231C0040E100BF001002400000424280044242F3
:10232C009E4B5B6A03F00203002BE9D17B681B68B0
:10233C0003F00403002B00F0A6800023FB75974BE1
:10234C00DB6903F08053002B0DD1944BDB69934A6E
:10235C0043F08053D361914BDB6903F08053BB6036
:10236C00BB680123FB758E4B1B6803F48073002B39
:10237C0018D18B4B1B688A4A43F480731360FFF7A8
:10238C00B9FB386108E0FFF7B5FB02463B69D31A8D
:10239C00642B01D90323FDE0814B1B6803F480738C
:1023AC00002BF0D07B68DB68012B06D17B4B1B6AC2
:1023BC007A4A43F0010313622DE07B68DB68002B43
:1023CC000CD1764B1B6A754A23F001031362734BD5
:1023DC001B6A724A23F0040313621CE07B68DB68FF
:1023EC00052B0CD16D4B1B6A6C4A43F00403136232
:1023FC006A4B1B6A694A43F0010313620BE0674B9B
:10240C001B6A664A23F001031362644B1B6A634A1E
:10241C0023F0040313627B68DB68002B15D0FFF7F5
:10242C0069FB38610AE0FFF765FB02463B69D31A8A
:10243C0041F28832934201D90323ABE0574B1B6A1C
:10244C0003F00203002BEED014E0FFF753FB3861CE
:10245C000AE0FFF74FFB02463B69D31A41F2883280
:10246C00934201D9032395E04C4B1B6A03F0020302
:10247C00002BEED1FB7D012B05D1484BDB69474A84
:10248C0023F08053D3617B68DB69002B00F08180E3
:10249C00424B5B6803F00C03082B61D07B68DB6953
:1024AC00022B46D13F4B00221A60FFF723FB386109
:1024BC0008E0FFF71FFB02463B69D31A022B01D938
:1024CC00032367E0354B1B6803F00073002BF0D13E
:1024DC007B681B6AB3F5803F08D1304B5B6823F4F3
:1024EC0000327B689B682D4913434B602B4B5B6818
:1024FC0023F474127B68196A7B685B6A0B43274967
:10250C0013434B60274B01221A60FFF7F3FA386133
:10251C0008E0FFF7EFFA02463B69D31A022B01D908
:10252C00032337E01D4B1B6803F00073002BF0D026
:10253C002FE01C4B00221A60FFF7DCFA386108E030
:10254C00FFF7D8FA02463B69D31A022B01D90323B1
:10255C0020E0124B1B6803F00073002BF0D118E045
:10256C007B68DB69012B01D1012313E00B4B5B680A
:10257C00FB60FB6803F480327B681B6A9A4206D1CD
:10258C00FB6803F470127B685B6A9A4201D00123EA
:10259C0000E0002318461837BD4680BD00100240ED
:1025AC00007000406000424280B584B000AF78609B
:1025BC0039607B68002B01D10123D0E06A4B1B688A
:1025CC0003F007033A689A4210D9674B1B6823F053
:1025DC00070265493B6813430B60634B1B6803F0B0
:1025EC0007033A689A4201D00123B8E07B681B6864
:1025FC0003F00203002B20D07B681B6803F004035C
:10260C00002B05D0594B5B68584A43F4E063536088
:10261C007B681B6803F00803002B05D0534B5B68E9
:10262C00524A43F460535360504B5B6823F0F00202
:10263C007B689B684D4913434B607B681B6803F0B8
:10264C000103002B40D07B685B68012B07D1474B03
:10265C001B6803F40033002B15D101237FE07B684A
:10266C005B68022B07D1414B1B6803F00073002BF6
:10267C0009D1012373E03D4B1B6803F00203002BCF
:10268C0001D101236BE0394B5B6823F003027B68BB
:10269C005B68364913434B60FFF72CFAF8600AE08D
:1026AC00FFF728FA0246FB68D31A41F288329342AC
:1026BC0001D9032353E02D4B5B6803F00C027B68BC
:1026CC005B689B009A42EBD1274B1B6803F0070316
:1026DC003A689A4210D2244B1B6823F00702224915
:1026EC003B6813430B60204B1B6803F007033A68ED
:1026FC009A4201D0012332E07B681B6803F004038B
:10270C00002B08D0194B5B6823F4E0627B68DB6814
:10271C00164913434B607B681B6803F00803002BBE
:10272C0009D0124B5B6823F460527B681B69DB0099
:10273C000E4913434B6000F021F802460B4B5B68CB
:10274C001B0903F00F030A49CB5C22FA03F3094A75
:10275C001360094B1B681846FFF78AF900231846CB
:10276C001037BD4680BD00BF002002400010024063
:10277C00CC3000081C0000202000002090B48AB04F
:10278C0000AF2A4B3C1D0FCB84E80F0040F2012315
:10279C003B800023FB610023BB6100237B62002391
:1027AC007B6100233B62224B5B68FB61FB6903F09E
:1027BC000C03042B02D0082B03D02DE01D4B3B62E5
:1027CC002DE0FB699B0C03F00F0307F12802134467
:1027DC0013F8243C7B61FB6903F48033002B13D08A
:1027EC00134B5B685B0C03F0010307F128021344E5
:1027FC0013F8283CBB617B690E4A02FB03F2BB69F0
:10280C00B2FBF3F37B6204E07B690B4A02FB03F33C
:10281C007B627B6A3B6202E0064B3B6200BF3B6A19
:10282C0018462837BD4690BC704700BFBC30000826
:10283C000010024000127A0000093D0080B485B0FF
:10284C0000AF78600A4B1B680A4AA2FB03235B0AA1
:10285C007A6802FB03F3FB6000BFFB685A1EFA6048
:10286C00002BF9D100BF00BF1437BD4680BC7047A8
:10287C001C000020D34D621080B582B000AF786090
:10288C007B68002B01D1012341E07B6893F83D303C
:10289C00DBB2002B06D17B68002283F83C207868E1
:1028AC00FFF74EF87B68022283F83D207B681A689C
:1028BC007B6804331946104600F06AFA7B680122E3
:1028CC0083F846207B68012283F83E207B68012236
:1028DC0083F83F207B68012283F840207B6801222B
:1028EC0083F841207B68012283F842207B68012217
:1028FC0083F843207B68012283F844207B68012203
:10290C0083F845207B68012283F83D20002318467C
:10291C000837BD4680BD000080B485B000AF78603C
:10292C007B6893F83D30DBB2012B01D0012335E0FD
:10293C007B68022283F83D207B681B68DA687B6821
:10294C001B6842F00102DA607B681B68164A9342EE
:10295C0009D07B681B68B3F1804F04D07B681B687F
:10296C00124A934211D17B681B689B6803F00703E2
:10297C00FB60FB68062B10D07B681B681A687B68B1
:10298C001B6842F001021A6007E07B681B681A683A
:10299C007B681B6842F001021A600023184614374A
:1029AC00BD4680BC704700BF002C014000040040B5
:1029BC0080B582B000AF78607B681B681B6903F040
:1029CC000203022B22D17B681B68DB6803F0020335
:1029DC00022B1BD17B681B686FF002021A617B68AB
:1029EC0001221A777B681B689B6903F00303002B99
:1029FC0003D0786800F0B1F905E0786800F0A4F92C
:102A0C00786800F0B3F97B6800221A777B681B6842
:102A1C001B6903F00403042B22D17B681B68DB6861
:102A2C0003F00403042B1BD17B681B686FF00402BA
:102A3C001A617B6802221A777B681B689B6903F416
:102A4C004073002B03D0786800F087F905E07868B4
:102A5C0000F07AF9786800F089F97B6800221A771F
:102A6C007B681B681B6903F00803082B22D17B6869
:102A7C001B68DB6803F00803082B1BD17B681B6801
:102A8C006FF008021A617B6804221A777B681B6856
:102A9C00DB6903F00303002B03D0786800F05DF9C9
:102AAC0005E0786800F050F9786800F05FF97B6811
:102ABC0000221A777B681B681B6903F01003102B2C
:102ACC0022D17B681B68DB6803F01003102B1BD131
:102ADC007B681B686FF010021A617B6808221A77FA
:102AEC007B681B68DB6903F44073002B03D07868A8
:102AFC0000F033F905E0786800F026F9786800F00A
:102B0C0035F97B6800221A777B681B681B6903F018
:102B1C000103012B0ED17B681B68DB6803F00103FA
:102B2C00012B07D17B681B686FF001021A61786872
:102B3C00FEF7CCFD7B681B681B6903F08003802BC0
:102B4C000ED17B681B68DB6803F08003802B07D1F8
:102B5C007B681B686FF080021A61786800F067FA76
:102B6C007B681B681B6903F04003402B0ED17B680C
:102B7C001B68DB6803F04003402B07D17B681B68A4
:102B8C006FF040021A61786800F0F9F87B681B68F6
:102B9C001B6903F02003202B0ED17B681B68DB68BC
:102BAC0003F02003202B07D17B681B686FF02002F9
:102BBC001A61786800F032FA00BF0837BD4680BD54
:102BCC0080B584B000AF786039607B6893F83C3096
:102BDC00012B01D10223B3E07B68012283F83C2056
:102BEC007B68022283F83D207B681B689B68FB6036
:102BFC00FB6823F07703FB60FB6823F47F43FB60E7
:102C0C007B681B68FA689A603B681B68B3F5005FC9
:102C1C003ED0B3F5005F00F28780B3F5805F00F023
:102C2C008580B3F5805F7FD8702B1AD0702B7BD842
:102C3C00602B50D0602B77D8502B3CD0502B73D8B6
:102C4C00402B58D0402B6FD8302B64D0302B6BD806
:102C5C00202B60D0202B67D8002B5CD0102B5AD0A7
:102C6C0062E07B6818683B6899683B685A683B6807
:102C7C00DB6800F05CF97B681B689B68FB60FB6899
:102C8C0043F07703FB607B681B68FA689A604EE040
:102C9C007B6818683B6899683B685A683B68DB68D6
:102CAC0000F045F97B681B689A687B681B6842F4E6
:102CBC0080429A603BE07B6818683B6859683B68C7
:102CCC00DB681A4600F0BCF87B681B68502118467C
:102CDC0000F013F92BE07B6818683B6859683B6877
:102CEC00DB681A4600F0DAF87B681B68602118462E
:102CFC0000F003F91BE07B6818683B6859683B6877
:102D0C00DB681A4600F09CF87B681B68402118466B
:102D1C0000F0F3F80BE07B681A683B681B681946F7
:102D2C00104600F0EAF802E000BF00E000BF7B684C
:102D3C00012283F83D207B68002283F83C2000238D
:102D4C0018461037BD4680BD80B483B000AF7860A4
:102D5C0000BF0C37BD4680BC704780B483B000AF59
:102D6C00786000BF0C37BD4680BC704780B483B020
:102D7C0000AF786000BF0C37BD4680BC704780B494
:102D8C0083B000AF786000BF0C37BD4680BC704785
:102D9C0080B485B000AF786039607B681B68FB60DD
:102DAC007B68254A934207D07B68B3F1804F03D0F0
:102DBC007B68224A934208D1FB6823F07003FB60C6
:102DCC003B685B68FA681343FB607B681A4A934262
:102DDC0007D07B68B3F1804F03D07B68174A9342CE
:102DEC0008D1FB6823F44073FB603B68DB68FA682E
:102DFC001343FB60FB6823F080023B685B69134361
:102E0C00FB607B68FA681A603B689A687B68DA62D8
:102E1C003B681A687B689A627B68074A934203D1C5
:102E2C003B681A697B681A637B6801225A6100BF90
:102E3C001437BD4680BC7047002C01400004004094
:102E4C0080B487B000AFF860B9607A60FB681B6A29
:102E5C007B61FB681B6A23F00102FB681A62FB684A
:102E6C009B693B613B6923F0F0033B617B681B0171
:102E7C003A6913433B617B6923F00A037B617A69EE
:102E8C00BB6813437B61FB683A699A61FB687A699A
:102E9C001A6200BF1C37BD4680BC704780B487B037
:102EAC0000AFF860B9607A60FB681B6A23F010020F
:102EBC00FB681A62FB689B697B61FB681B6A3B6160
:102ECC007B6923F470437B617B681B037A69134332
:102EDC007B613B6923F0A0033B61BB681B013A6932
:102EEC0013433B61FB687A699A61FB683A691A6221
:102EFC0000BF1C37BD4680BC704780B485B000AFA6
:102F0C00786039607B689B68FB60FB6823F070031A
:102F1C00FB603A68FB68134343F00703FB607B6874
:102F2C00FA689A6000BF1437BD4680BC704780B405
:102F3C0087B000AFF860B9607A603B60FB689B6853
:102F4C007B617B6923F47F437B613B681A027B685E
:102F5C001A43BB6813437A6913437B61FB687A6934
:102F6C009A6000BF1C37BD4680BC704780B485B0EA
:102F7C0000AF786039607B6893F83C30012B01D14D
:102F8C00022341E07B68012283F83C207B6802220B
:102F9C0083F83D207B681B685B68FB607B681B6863
:102FAC009B68BB60FB6823F07003FB603B681B688D
:102FBC00FA681343FB607B681B68FA685A607B688D
:102FCC001B68144A934209D07B681B68B3F1804F8D
:102FDC0004D07B681B68104A93420CD1BB6823F069
:102FEC008003BB603B685B68BA681343BB607B685B
:102FFC001B68BA689A607B68012283F83D207B6865
:10300C00002283F83C20002318461437BD4680BCB0
:10301C00704700BF002C01400004004080B483B016
:10302C0000AF786000BF0C37BD4680BC704780B4E1
:10303C0083B000AF786000BF0C37BD4680BC7047D2
:10304C0070B500260C4D0D4C641BA410A64209D182
:10305C0000F022F800260A4D0A4C641BA410A6426C
:10306C0005D170BD55F8043B98470136EEE755F88D
:10307C00043B98470136F2E7DC300008DC300008EE
:10308C00DC300008E030000803460244934200D1D3
:10309C00704703F8011BF9E7F8B500BFF8BC08BC92
:1030AC009E467047F8B500BFF8BC08BC9E467047FA
:1030BC0002030405060708090A0B0C0D0E0F10106D
:1030CC0000000000000000000102030406070809CC
:0430DC0031010008B6
:0430E0000D010008D6
:1030E40001000000010000000100000001000000D8
:1030F4006400000000000000000000000024F40050
:083104001000000001000000B2
:0400000508001A05D0
:00000001FF
